:020000040800F2
:10000000D0F1002085010008C5440008D54400084F
:10001000F1440008014500081145000800000000F7
:100020000000000000000000000000002145000862
:100030003145000800000000414500085145000816
:100040009F0100089F0100089F010008ED3A000889
:100050009F0100089F0100089F0100089F01000800
:100060009F0100089F0100089F0100089F010008F0
:100070009F0100089F0100089F0100089F010008E0
:100080009F0100089F0100089F0100089F010008D0
:100090009F0100089F0100089F0100080F3B000816
:1000A0009F0100089F0100089F0100089F010008B0
:1000B000DBB600089F0100087DAF00089F01000823
:1000C0009F0100089F0100089F0100089F01000890
:1000D0009F01000845A4000831A400089F01000802
:1000E0005D5300089F0100089F0100089F01000860
:1000F0009F0100089F0100089F0100089F01000860
:100100009F0100089F0100089F0100089F0100084F
:100110009F0100089F010008614500089F01000839
:100120009F0100089F0100089F0100089F0100082F
:10013000DFF80CD010F0D6F800480047495C000802
:10014000D0F10020EFF30980704780F309887047F1
:10015000EFF30880704780F30888704740BA704713
:10016000C0BA7047EFF3108072B6704780F3108802
:1001700070477047014802490160FEE70CED00E05E
:100180000000FA050648804706480047FEE7FEE7FC
:10019000FEE7FEE7FEE7FEE7FEE7FEE7FEE7FEE737
:1001A000B9020008310100080CB500200190009050
:1001B0009248006840F480309049086000BF8F4842
:1001C000006800F4003000900198401C01900098F5
:1001D00018B90198B0F5A06FF1D18848006800F413
:1001E000003010B10120009001E000200090009844
:1001F00001285CD18248006840F010008049086006
:100200000846006820F0030008600846006840F0D7
:1002100002000860794840687849486008464068AC
:1002200048600846406840F4806048600846C06AFC
:10023000744908407149C8620846C06A7249084357
:100240006E49C8620846006840F08060086000BFE0
:100250006A48006800F000600028F9D067484068EC
:1002600020F47C10654948600846406840F4E81076
:1002700048600846006840F08070086000BF5F4832
:10028000006800F000700028F9D05C48406820F059
:1002900003005A4948600846406840F00200486040
:1002A00000BF5648406800F00C000828F9D10CBD8A
:1002B00010B5FFF779FF10BD10B55048006840F049
:1002C00001004E49086008464068504908404B49C3
:1002D0004860084600684E4908404849086008469A
:1002E000006820F4802008600846406820F4FE0082
:1002F00048600846006820F0A05008604FF47F0076
:1003000088600020C862FFF7D3FF4FF000604149CA
:10031000086010BDF0B50021002000230024002259
:1003200000250026354F7F6807F00C0121B1042914
:1003300008D008294BD10BE0374FDFF8E0C0CCF8EC
:1003400000704AE0344FDFF8D4C0CCF8007044E0CD
:100350002A4F7F6807F47010284F7F6807F48033B6
:10036000800C0D2801D0801C00E0062033B92C4FF2
:100370004743DFF8A8C0CCF8007027E01F4FFF6AA2
:1003800007F480341D4FFF6A07F00F077A1C44B949
:10039000214FB7FBF2F74743DFF880C0CCF800707D
:1003A00014E0164FFF6AC7F303177D1C134FFF6A53
:1003B000C7F30327BE1C184FB7FBF5F77743B7FB0E
:1003C000F2F74743DFF854C0CCF8007005E0124F55
:1003D000DFF848C0CCF8007000BF00BF074F7F684F
:1003E000C7F30317DFF83CC01CF807100B4F3F683A
:1003F000CF40DFF828C0CCF80070F0BD00100240FC
:100400000020024000F0FEFF140801000000FFF091
:10041000FFFFF6FE08ED00E000127A000000002069
:1004200000093D000400002001684FF6FE721140F3
:1004300001600021016041608160C1608D49884296
:1004400008D18C490839496841F00F01894A083AB6
:1004500051608AE087491431884208D185490839BA
:10046000496841F0F001834A083A51607DE08149D2
:100470002831884208D17F490839496841F47061C0
:100480007C4A083A516070E07A493C31884208D190
:1004900078490839496841F47041764A083A516010
:1004A00063E074495031884208D17249083949687B
:1004B00041F470216F4A083A516056E06D49643149
:1004C000884208D16B490839496841F47001694A8A
:1004D000083A516049E067497831884208D1654956
:1004E0000839496841F07061624A083A51603CE05D
:1004F0006149884206D1011F096841F00F01021FBE
:10050000116032E05C491431884208D15A49091F10
:10051000096841F0F001584A121F116025E0564960
:100520002831884208D15449091F096841F4706193
:10053000514A121F116018E04F493C31884208D1DE
:100540004D49091F096841F470414B4A121F11605F
:100550000BE049495031884207D14749091F0968D2
:1005600041F47021444A121F1160704710B50022F7
:10057000026847F6F0739A430C6A8B6823430C6950
:1005800023434C6923438C692343CC6923434C6A3E
:1005900023438C6A23431A430260CB6843600B6891
:1005A00083604B68C36010BD0021016041608160C1
:1005B000C160016141618161C16101624162816229
:1005C000704721B1026842F00102026004E0026853
:1005D0004FF6FE731A40026070471AB103680B436E
:1005E000036002E003688B4303607047416070471B
:1005F0000146486880B2704701460020002201F0A1
:1006000080531BB11C4B083B1A6802E0194B083B96
:100610001A6802EA01030BB1012000E000207047D4
:1006200000F0805119B11449091F086002E0114916
:1006300008394860704701460020002201F08053CD
:100640001BB10D4B083B1A6802E00A4B083B1A68C5
:1006500002EA01030BB1012000E00020704700F026
:10066000805119B10449091F086002E001490839A5
:1006700048607047080002400804024000204449D6
:100680000860091D0860091D0860091D08604148CF
:100690003F4914310860704700213D498279002AA2
:1006A0003AD00A46126803689A430B461A600A1D3C
:1006B000126803689A430B1D1A60027911440A6894
:1006C00003681A430A60324A0832126803689A4380
:1006D0002F4B08331A601A1D126803689A432C4B7B
:1006E0000C331A604279102A0ED11A1F126803685F
:1006F0001A43274B08331A601A1D126803681A43FD
:10070000234B0C331A600DE02149427911440A68E9
:1007100003681A430A6005E0027911440A68036815
:100720009A430A6070470021016001710C214171F8
:100730000021817170471649103109680143144A3C
:1007400010321160704701460020114A14321268BD
:100750000A400AB1012000E0002070470C49143122
:1007600008607047014600200022094B1B6803EA1D
:100770000102074B14331B680B4013B10AB101206F
:1007800000E0002070470249143108607047000003
:1007900000040140FFFF0F0001460020FE4A1068E0
:1007A00000F03800084310607047FB49096821F0E9
:1007B0000801F94A11601146096801431160704748
:1007C000F549096821F01001F34A116011460968E2
:1007D000014311607047F148EF494860F0484860B4
:1007E0007047EE48EC494860ED4848607047EA4879
:1007F000006940F08000E84908617047E6480069F8
:1008000040F08000E449086170470420E249C9686B
:1008100001F0010109B101200EE0DF49C96801F0D2
:10082000040109B1022007E0DB49C96801F01001A9
:1008300009B1032000E00420704700B502460423FC
:10084000FFF7E3FF034603E0FFF7DFFF0346521E17
:10085000012B01D1002AF7D102B90523184600BDAA
:1008600030B5044604254FF43020FFF7E6FF054677
:10087000042D17D1C848006940F00200C64908613C
:1008800008464461006940F0400008614FF43020A0
:10089000FFF7D3FF0546C048006941F6FD710840E7
:1008A000BD490861284630BD10B504244FF43020FE
:1008B000FFF7C3FF0446042C16D1B748006940F087
:1008C0000400B54908610846006940F0400008612D
:1008D0004FF43020FFF7B1FF0446AF48006941F6FE
:1008E000FB710840AC490861204610BD00B50246C6
:1008F0000423FFF78AFF034603E0FFF786FF034662
:10090000521E012B01D1002AF7D102B90523184646
:1009100000BD10B504244FF43020FFF7E7FF044674
:10092000042C16D19C48006940F004009A490861E3
:100930000846006940F0400008614FF43020FFF79E
:10094000D5FF04469448006941F6FB71084092497E
:100950000861204610BD00208F49C96901F00201DD
:1009600009B1012000E00020704730B5A52504241E
:10097000FFF7F1FF00B100254FF43020FFF75DFFD6
:100980000446042C3AD185488349886084488860AD
:100990000846006940F0200008610846006940F000
:1009A000400008614FF43020FFF747FF0446042C55
:1009B0001BD17948006941F6DF710840764908612A
:1009C0000846006940F01000086176480580E002A2
:1009D000FFF733FF0446052C10D06F48006941F63D
:1009E000EF7108406C49086108E0052C06D06A48A0
:1009F000006941F6EF71084067490861204630BD43
:100A000078B506460C46042500200090E802FFF762
:100A100014FF0546042D24D15F48006940F0010011
:100A20005D4908613480E802FFF707FF0546042DA1
:100A300010D1B01C0090200C00990880E802FFF74C
:100A4000FCFE05465448006941F6FE7108405249D3
:100A5000086106E05048006941F6FE7108404E49C1
:100A60000861284678BD70B504460D460426F0029C
:100A7000FFF7E3FE0646042E11D14748006940F017
:100A80000100454908612580F002FFF7D6FE0646C1
:100A90004148006941F6FE7108403F49086130460F
:100AA00070BD70B505460E460424E002FFF7C5FE92
:100AB0000446042C17D13948374988603848886083
:100AC0000846006940F0100008612E80E002FFF740
:100AD000B4FE0446052C06D02F48006941F6EF719C
:100AE00008402D490861204670BD2DE9F0430446B9
:100AF0004FF6FF763746B046B1460425E443E6B2EA
:100B0000C4F30727C4F307484FEA1469E802FFF764
:100B100094FE0546042D49D120481F49886020488D
:100B200088600846006940F010000861FF2E06D07A
:100B30001C4808300680E802FFF77FFE0546042DBA
:100B400008D1FF2F06D017480A300780E802FFF7C8
:100B500074FE0546042D0AD1B8F1FF0F07D01148E5
:100B60000C30A0F80080E802FFF767FE0546042D70
:100B70000AD1B9F1FF0F07D00A480E30A0F8009053
:100B8000E802FFF75AFE0546052D0FD0024800691E
:100B900041F6EF71084007E000200240230167455D
:100BA000AB89EFCD00F8FF1F664908612846BDE814
:100BB000F08330B5054604244FF43020FFF73DFEA6
:100BC0000446042C41D160485E4988605F488860D3
:100BD0000846006940F0200008610846006940F0BE
:100BE000400008614FF43020FFF727FE0446042C34
:100BF00022D15448006941F6DF710840514908612B
:100C00000846006940F0100008611DB100205049FD
:100C1000088002E0A5204E4908804FF43020FFF7FD
:100C20000CFE0446052C10D04648006941F6EF71D1
:100C300008404449086108E0052C06D04148006995
:100C400041F6DF7108403F490861204630BDF0B5EC
:100C500005460E46174604243B483A4988603B48FF
:100C60008860E002FFF7E9FD0446042C19D13548FD
:100C7000006940F010003349086147F0F800304344
:100C800028433349891C0880E002FFF7D6FD04465B
:100C9000052C06D02B48006941F6EF710840294920
:100CA00008612046F0BD2748C06980087047254884
:100CB000006A704700202349096801F0200109B14A
:100CC000012000E00020704729B11E4A126902434A
:100CD0001C4B1A6104E01B4A12698243194B1A61CA
:100CE000704701460020012908D1164AD26902F056
:100CF00001020AB1012008E0002006E0114AD26892
:100D00000A400AB1012000E0002070470D49C86088
:100D1000704704200B49C96801F0010109B10120A5
:100D20000EE00849C96801F0040109B1022007E09A
:100D30000449C96801F0100109B1032000E0042052
:100D4000704700000020024023016745AB89EFCDCA
:100D500000F8FF1F10B50446CC48844208D1012199
:100D6000042000F007FC0021042000F003FC46E012
:100D7000C748844208D10121082000F0FBFB002174
:100D8000082000F0F7FB3AE0C248844208D1012174
:100D9000102000F0EFFB0021102000F0EBFB2EE014
:100DA000BD48844208D10121202000F0E3FB00214E
:100DB000202000F0DFFB22E0B848844208D1012166
:100DC000402000F0D7FB0021402000F0D3FB16E0CC
:100DD000B348844208D10121802000F0CBFB0021E0
:100DE000802000F0C7FB0AE0AE48844207D1012111
:100DF000801500F0BFFB0021A01500F0BBFB10BD6B
:100E000010B50121084600F0B5FB0021012000F0DB
:100E1000B1FB10BD2DE9F04102460025002600205F
:100E200000230024002791F803C00CF00F0591F86F
:100E300003C00CF0100CBCF1000F03D091F802C0FD
:100E40004CEA050591F800C0BCF1000F31D01468E0
:100E500000202BE04FF0010C0CFA00F3B1F800C0B9
:100E60000CEA03069E4220D183004FF00F0C0CFACF
:100E700003F7BC4305FA03FC4CEA040491F803C0F1
:100E8000BCF1280F06D14FF0010C0CFA00FCC2F89F
:100E900014C00AE091F803C0BCF1480F05D14FF02F
:100EA000010C0CFA00FCC2F810C0401C0828D1D379
:100EB0001460B1F800C0BCF1FF0F34DD54680020AD
:100EC0002EE000F1080C4FF0010808FA0CF3B1F81D
:100ED00000C00CEA03069E4221D183004FF00F0CA4
:100EE0000CFA03F7BC4305FA03FC4CEA040491F83E
:100EF00003C0BCF1280F05D100F1080C08FA0CF86A
:100F0000C2F8148091F803C0BCF1480F07D100F17A
:100F1000080C4FF0010808FA0CF8C2F81080401CC9
:100F20000828CED35460BDE8F0814FF6FF710180F0
:100F3000022181700421C17070470246002093682D
:100F40000B400BB1012000E000207047014688688B
:100F500080B2704702460020D3680B400BB10120DD
:100F600000E0002070470146C86880B27047016108
:100F70007047416170470AB1016100E0416170470B
:100F8000C16070474FF480320A438261816182619F
:100F900082698269704702460020434B18684FF609
:100FA0008073184040EA021008433F4B18607047B6
:100FB0003E49C8617047F0B50A460023002400216D
:100FC000002500F00046B6F1004F02D1364EF1691F
:100FD00001E0354E7168C0F3034583B200F440165A
:100FE000B6F5401F08D121F070612F4E766826F0CB
:100FF00070662D4F7E6012E000F48016B6F5801FFB
:1010000006D1032606FA05F4A14341F0706106E01B
:10101000460D360103FA06F6B14341F0706122B184
:10102000460D360103FA06F6314300F00046B6F1EC
:10103000004F02D11C4EF16101E01B4E7160F0BD0A
:1010400030B500228B071C0F0F2303FA04F2164B56
:1010500008338C1053F824309343134C08348D100C
:1010600044F8253023468C1053F824308C07240F85
:1010700000FA04F423430C4C08348D1044F8253056
:1010800030BD0A49DC3108607047000000080140AB
:10109000000C014000100140001401400018014004
:1010A000001C0140002001400000014000002042DF
:1010B0000E49086070470D49486070470B498860C9
:1010C00070474AF6AA200949086070474CF6CC40A0
:1010D00006490860704701460020044AD2680A4069
:1010E0000AB1012000E000207047000000300040FD
:1010F000FB48006840F00100F94908600846406874
:10110000F8490840F649486008460068F649084032
:10111000F34908600846006820F48020086008460B
:10112000406820F4FE0048600846006820F0A050A7
:1011300008604FF47F0088600020C8627047E8496B
:10114000096821F48031E64A11601146096821F4EA
:1011500080211160B0F5803F03D0B0F5802F0ED113
:1011600006E0DF49096841F48031DD4A116007E09B
:10117000DB49096841F4A021D94A116000E000BFB1
:1011800000BF704710B501460022002300204A111D
:10119000012A02D1D24C236806E0022A02D1D04CA7
:1011A000236A01E0CE4C636A01F01F0201249440DF
:1011B0001C400CB1012000E0002010BD38B500201B
:1011C00000900024002500BF3120FFF7DBFF05461B
:1011D0000098401C00900098B0F5A06F01D0002D41
:1011E000F2D03120FFF7CEFF08B1012400E0002447
:1011F000204638BD01460020B94A106820F0F800AA
:1012000040EAC10010607047B84908607047024664
:101210000020B34B586820F4741042EA01031843CD
:10122000AF4B58607047B1490866704702460020CE
:10123000AB4BD86AAE4B184042EA01031843A84BA7
:10124000D862704701460020A54AD06A20F0F0001D
:101250000843D062704701460020A14AD06A20F4BA
:1012600070600843D0627047A049886670470146A5
:1012700000209B4AD06A20F470400843D062704737
:101280009A490867704701460020954A506820F047
:1012900003000843506070479148406800F00C001C
:1012A0007047014600208E4A506820F0F000084345
:1012B0005060704701460020894A506820F4E06081
:1012C00008435060704701460020854A506820F46A
:1012D000605040EAC1005060704729B1804A527A9C
:1012E00002437F4B5A7204E07D4A527A82437C4B20
:1012F0005A7270477D49D831086070470146002016
:10130000774A506820F4404008435060704779495C
:10131000086070477749091D086070470021704ACE
:10132000203211706E4A82F82010012802D0042861
:101330000AD104E001216A4A2032117005E005213A
:10134000674A2032117000E000BF00BF70476A4951
:10135000086070476249096A0143614A1162704737
:1013600065494439086070472DE9F04100210022A9
:10137000002500230026002400278C46DFF860812A
:10138000D8F8048008F00C0121B1042907D00829FD
:1013900059D109E0DFF86481C0F8008058E0DFF837
:1013A0005C81C0F8008053E0DFF83481D8F8048015
:1013B00008F47012DFF82881D8F8048008F480352A
:1013C000920C0D2A01D0921C00E0062235B9DFF8FC
:1013D000308102FB08F8C0F8008033E0DFF80081BC
:1013E000D8F82C8008F48036DFF8F480D8F82C8008
:1013F00008F00F0808F1010446B9DFF80081B8FBD6
:10140000F4F808FB02F8C0F800801BE0DFF8D08099
:10141000D8F82C80C8F3031808F10107DFF8C08062
:10142000D8F82C80C8F3032808F1020CDFF8CC8030
:10143000B8FBF7F808FB0CF8B8FBF4F808FB02F867
:10144000C0F8008004E0DFF8B480C0F8008000BF7E
:1014500000BFDFF88C80D8F8048008F0F00109099B
:10146000DFF8A08018F80130D0F8008028FA03F8DF
:10147000C0F80480DFF86880D8F8048008F4E061E0
:10148000090ADFF8808018F80130D0F8048028FAC3
:1014900003F8C0F80880DFF84880D8F8048008F422
:1014A0006051C90ADFF85C8018F80130D0F8048078
:1014B00028FA03F8C0F80C80DFF82480D8F80480FC
:1014C00008F44041890BDFF8408018F80130D0F86B
:1014D0000C80B8FBF3F8C0F81080BDE8F081000084
:1014E000001002400000FFF0FFFFF6FE0000424245
:1014F000F0FFFEFFC40542428004424200127A001F
:1015000000093D00140000202400002029B1354AC4
:1015100052690243334B5A6104E0324A52698243B2
:10152000304B5A61704729B12E4A926902432D4BC4
:101530009A6104E02B4A926982432A4B9A61704770
:1015400029B1284AD2690243264BDA6104E0254AD0
:10155000D2698243234BDA61704729B1214A926AEA
:101560000243204B9A6204E01E4A926A82431D4B5A
:101570009A62704729B11B4AD2680243194BDA605C
:1015800004E0184AD2688243164BDA60704729B1EA
:10159000144A12690243134B1A6104E0114A12699A
:1015A0008243104B1A6170470F49086070470F491A
:1015B000C86470470B49C87170470A48406A40F0D8
:1015C000807008494862704701460020054A9268C9
:1015D0000A400AB1012000E00020704701498872EA
:1015E00070470000001002404004424200004242A6
:1015F00029B1504A128802434E4B1A8004E04D4AEA
:10160000128882434B4B1A8070474A48001D00885D
:1016100040F010004749091D088070474548001DEB
:1016200000884FF6EF7108404249091D0880704755
:10163000002140481C300188001F008841EA00401A
:10164000704700B50246FFF7E0FF100C394918312A
:101650000880091D0A80FFF7E1FF00BD00B50246C2
:10166000FFF7D3FFC2F30340324908310880091D58
:101670000A80FFF7D3FF00BD00B50246FFF7C5FFA4
:10168000100C2C4920310880091D0A80FFF7C6FF85
:1016900000BD00202749103109880907080B25499A
:1016A000143109880843704700BF2248001D008894
:1016B00000F020000028F8D070471E48001D008868
:1016C0004FF6F77108401B49091D088000BF1948F3
:1016D000001D008800F008000028F8D0704701467F
:1016E0000020144A121D12880A400AB1012000E0AD
:1016F000002070470F49091D098881430D4A121DBA
:1017000011807047014600200A4A121D12880A40C3
:10171000D0B2084A12880A4012B108B1012000E094
:10172000002070470349091D09888143014A121DA1
:10173000118070470028004010B50446CE4884420E
:1017400008D101218014FFF715FF0021A014FFF735
:1017500011FF16E0C948844208D101210014FFF7A7
:1017600016FF00212014FFF712FF0AE0C44884424C
:1017700007D10121C013FFF70AFF0021E013FFF793
:1017800006FF10BD10B50022028802F441520B88FA
:101790004C8823438C882343CC8823430C892343E0
:1017A0004C8923438C892343CC8923431A430280E9
:1017B000838B4FF2FF74234083830B8A038210BD17
:1017C0002DE9F04F85B006460C464FF0000A02277F
:1017D0004FF000084FF0010B0025A946B08B4FF2E7
:1017E00040010840B08302203084B6F81CA0A068F5
:1017F000022801D100BF59E0A08810B94FF0010BB9
:1018000001E04FF0020B9D48864202D14FF40035B3
:1018100001E04FF480259B48C06A2840C8B1994830
:10182000C06AC0F30335052D03D90F2D01D2AD1CBD
:1018300002E00F2D00D114259248C06AC0F30310B6
:1018400000F101099048B0FBF9F068434FEA400904
:1018500004E06846FFF788FDDDF80090E088B0F509
:10186000007F0AD14FEA192000EB80004000A168F8
:10187000B0FBF1F0401D85B20BE04FEA4B10B9FB15
:10188000F0F000EB80004000A168B0FBF1F0401DDB
:1018900085B20A20B5FBF0F505F00108A5EB0800BC
:1018A000C0F34F074FF6FF7000EA0828022F01DB54
:1018B000FF2F02DD02274FF00008E08840EA080011
:1018C00038433084A088A18908436188084321886F
:1018D000084340F4006040EA0A0AA6F81CA005B0DC
:1018E000BDE8F08F0021018041808180C1800181AD
:1018F00041818181C18107210182704700210180DE
:1019000041808180C18002218160002181817047F6
:1019100021B1028842F04002028004E002884FF6C2
:10192000BF731A400280704721B1828B42F48062FB
:10193000828304E0828B4FF6FF331A408283704724
:1019400030B5002400230C110125A540ABB21AB11B
:1019500085881D43858002E085889D43858030BD54
:101960001AB183880B43838002E083888B43838092
:101970007047818170470146888970474FF6FF6242
:10198000914204D0028842F48072028004E002880E
:101990004FF6FF631A400280704721B1828842F0FF
:1019A0000402828004E082884FF6FB731A40828032
:1019B000704702884FF2FF731A40028002880A4380
:1019C00002807047018841F480510180704721B145
:1019D000028842F40052028004E002884DF6FF7350
:1019E0001A400280704702460020012901D0108B66
:1019F00000E0908A70470146088A7047B1F5804F31
:101A000004D1028842F48042028004E002884BF64E
:101A1000FF731A40028070470246002013890B4072
:101A20000BB1012000E000207047CA4302817047DB
:101A3000F0B50246002000240023002501F00F0726
:101A40000126BE40B4B20B1101269E40B3B2968867
:101A500006EA03051689264016B10DB1012000E003
:101A60000020F0BD10B5002201F00F040123A340B7
:101A70009AB2D343038110BD0030014000380040CA
:101A8000003C00400010024000127A0010B50446ED
:101A9000FE48844208D10121C014FFF76BFD0021EC
:101AA000E014FFF767FDC4E0B4F1804F08D10121D5
:101AB0000846FFF76CFD00210120FFF768FDB8E044
:101AC000F348844208D101210220FFF760FD002184
:101AD0000220FFF75CFDACE0EE48844208D1012112
:101AE0000420FFF754FD00210420FFF750FDA0E083
:101AF000E948844208D101210820FFF748FD002170
:101B00000820FFF744FD94E0E448844208D1012115
:101B10001020FFF73CFD00211020FFF738FD88E082
:101B2000DF48844208D101212020FFF730FD002149
:101B30002020FFF72CFD7CE0DA48844208D1012107
:101B40004014FFF717FD00216014FFF713FD70E04C
:101B5000D548844209D10121C804FFF70BFD0021BB
:101B60004FF40020FFF706FD63E0D048844209D11E
:101B700001210805FFF7FEFC00214FF48010FFF75C
:101B8000F9FC56E0CA48844209D101214805FFF713
:101B9000F1FC00214FF40010FFF7ECFC49E0C548D0
:101BA000844208D101214020FFF7F1FC00214020B0
:101BB000FFF7EDFC3DE0C048844208D101218020C0
:101BC000FFF7E5FC00218020FFF7E1FC31E0BB4896
:101BD000844208D101218015FFF7D9FC0021A0150E
:101BE000FFF7D5FC25E0B648844209D1012108045D
:101BF000FFF7C0FC00214FF48030FFF7BBFC18E07A
:101C0000B048844209D101214804FFF7B3FC002108
:101C10004FF40030FFF7AEFC0BE0AB48844208D134
:101C200001218804FFF7A6FC00214FF48020FFF774
:101C3000A1FC10BD00220288944B98420ED0994B13
:101C400098420BD0B0F1804F08D0914B984205D00C
:101C5000904B984202D0904B984204D14FF68F732C
:101C60001A404B881A438D4B984207D08C4B9842B0
:101C700004D04FF6FF431A40CB881A4302808B886A
:101C800083850B880385814B98420BD0854B984206
:101C900008D08B4B984205D08A4B984202D08A4B91
:101CA000984201D10B7A038601238382704770B575
:101CB000002400220023058C4FF6FE763540058473
:101CC000028C8388048B4FF68F752C40B51E2C40F8
:101CD0000D882C43751E2A400D892A434D882A43BE
:101CE0006A4DA8420BD06F4DA84208D0744DA8424F
:101CF00005D0744DA84202D0734DA84213D14FF6BF
:101D0000F7752A404D892A434FF6FB752A408D8886
:101D10002A434FF6FF652B404FF6FF552B408D8928
:101D20002B43CD892B4383800483CD888586028411
:101D300070BD70B5002400220023058C4FF6EF76AD
:101D400035400584028C8388048B48F6FF752C404F
:101D50004FF6FF452C400D884FF6FF7606EA052525
:101D60002C434FF6DF752A400D8906EA05152A43F4
:101D70004D8806EA05152A43444DA84202D0494D34
:101D8000A8421DD14FF67F752A404D894FF6FF7648
:101D900006EA05152A434FF6BF752A408D8806EAE4
:101DA00005152A434FF6FF352B404FF2FF752B40A8
:101DB0008D8906EA85052B43CD8906EA85052B43E7
:101DC00083800483CD880587028470BD70B50024AC
:101DD00000220023058C4FF6FF6635400584028CF7
:101DE0008388848B4FF68F752C404FF6FC752C4002
:101DF0000D882C434FF6FF552A400D894FF6FF768C
:101E000006EA05252A434D8806EA05252A431F4D83
:101E1000A84202D0234DA8421DD14FF2FF752A409F
:101E20004D894FF6FF7606EA05252A434FF6FF3522
:101E30002A408D8806EA05252A434EF6FF752B4079
:101E40004DF6FF752B408D8906EA05152B43CD898C
:101E500006EA05152B4383808483CD888587028419
:101E600070BD70B5002200230024058C4EF6FF766D
:101E700035400584038C8488828B48F6FF752A40A0
:101E80004FF6FF452A400D8820E00000002C01405D
:101E90000004004000080040000C0040001000401A
:101EA0000014004000340140004C0140005001404B
:101EB0000054014000180040001C00400020004079
:101EC0000040014000440140004801404FF6FF76C9
:101ED00006EA05252A434DF6FF752B400D8906EAD3
:101EE00005352B434D8806EA05352B43FA4DA842AC
:101EF00002D0FA4DA84208D14BF6FF752C408D89CF
:101F00004FF6FF7606EA85152C4384808283CD88C0
:101F1000A0F84050038470BD828B4FF2FF331A400B
:101F20008283828B4FF6FF7303EA01231A43828375
:101F30007047F0B50C461546002200210026078C9C
:101F40004EF6FF7C07EA0C070784828B018C4FF664
:101F5000FF7707EA043640F6FF473A404FF6FF772F
:101F600007EA05273A434FF6FF7707EA03373A4374
:101F7000D94FB8420ED0D94FB8420BD0B0F1804FF4
:101F800008D0D74FB84205D0D64FB84202D0D64F6E
:101F9000B84206D14DF6FF77394046F480573943B1
:101FA00005E047F6FF57394044F4805739438283B0
:101FB0000184F0BD828B4FF6F3731A408283828BCB
:101FC0000A4382837047F0B50C4615460022002173
:101FD0000026078C4FF6FF6C07EA0C070784828BFC
:101FE000018C4FF6FF7707EA04264FF60C773A404C
:101FF0004FF6FF7707EA03172F433A43B64FB8422D
:102000000ED0B64FB8420BD0B0F1804F08D0B44FCD
:10201000B84205D0B34FB84202D0B34FB84206D150
:102020004FF6FF57394046F48077394305E04FF2C9
:10203000FF57394044F48077394382830184F0BDEF
:10204000028B4FF2FF331A400283028B4FF6FF736D
:1020500003EA01231A4302837047F0B50C46154684
:10206000002200210026078C4FF6EF7C07EA0C07C0
:102070000784028B018C4FF6FF7707EA041640F6BF
:10208000FF473A404FF6FF7707EA03373A434FF6E8
:10209000FF7707EA05273A438F4FB8420ED08F4F9C
:1020A000B8420BD0B0F1804F08D08D4FB84205D068
:1020B0008C4FB84202D08C4FB84206D14FF6DF7732
:1020C000394046F01007394305E04FF65F77394055
:1020D00044F01007394302830184F0BD028B4FF6B0
:1020E000F3731A400283028B0A4302837047F0B5F0
:1020F0000C46154600220021068C4FF6FE773E4026
:102100000684028B018C4FF60C7632407E1C06EA68
:1021100003162E433243704EB0420ED06F4EB04283
:102120000BD0B0F1804F08D06D4EB04205D06D4E4F
:10213000B04202D06C4EB04206D14FF6FD7631402F
:1021400044F00106314305E04FF6F576314044F0A6
:102150000106314302830184F0BD70B505460C468B
:102160005D4885420ED05D4885420BD0B5F1804F69
:1021700008D05B48854205D05A48854202D05A486B
:10218000854200D100E000BF208850B92389A28891
:1021900061882846FFF7ABFFE1882846FFF79EFFDE
:1021A00025E0208804280AD12389A288618828464E
:1021B000FFF753FFE1882846FFF742FF17E020882A
:1021C00008280AD12389A28861882846FFF7FBFEE8
:1021D000E1882846FFF7EEFE09E02389A28861889E
:1021E0002846FFF7A6FEE1882846FFF795FE70BD5A
:1021F0002DE9F04105460C4600260127608808B904
:10220000022600E00026A088012801D1022700E074
:1022100001272088A0B92389A28861882846FFF772
:1022200066FFE1882846FFF759FF23893A46314681
:102230002846FFF712FFE1882846FFF701FF13E069
:102240002389A28861882846FFF707FFE18828468E
:10225000FFF7F6FE23893A4631462846FFF747FF47
:10226000E1882846FFF73AFFBDE8F0810A884B88ED
:102270001A438B881A43CB881A430B891A434B891C
:102280001A438B891A43A0F8442070474FF6FF7118
:10229000818000210180C18041800172704700214E
:1022A000018041808180C180018141818181C18122
:1022B0007047002101804180012181800021C1807F
:1022C000018170470021018041808180C1800181AE
:1022D0004181818170470000002C014000340140A1
:1022E0000004004000080040000C004021B10288BA
:1022F00042F00102028004E002884FF6FE731A40A9
:102300000280704731B1B0F8442042F40042A0F896
:10231000442005E0B0F84420C2F30E02A0F84420A7
:1023200070471AB183890B43838102E083898B4311
:10233000838170478182704741EA0203A0F84830E8
:1023400070471AB183890B43838102E083898B43F1
:102350008381704701894FF6F872114001817047FF
:102360000A46002101894FF68F73194011430181FC
:10237000704730B504460D4629462046FFF7F0FF6A
:10238000208940F00700208130BD2DE9F04104464E
:102390000D4616461F46602D06D13B4601223146AA
:1023A0002046FFF75AFE05E03B4601223146204613
:1023B000FFF79DFE29462046FFF7D2FF208940F017
:1023C00007002081BDE8F08130B50C46002101896D
:1023D000C9B24FF6FF7505EA032515432543294386
:1023E000018130BD2DE9F04105460E46174698465D
:1023F000002443463A4631462846FFF7E5FF2C893C
:102400004FF6F870044044F007044FF68F70044014
:1024100044F070042C81BDE8F081F0B504460D460F
:1024200016461F463B46324629462046FFF7CCFF5C
:10243000208940F480402081F0BD01858282704770
:102440000A46002101884FF68F731940114301801D
:102450007047F0B50C4615461E46002100220023A9
:102460000189028B038C4FF6F877394021434FF6F0
:10247000FC473A4040F201173A434FF6DD773B40C4
:102480004FF6FF7707EA06172F433B43018102838C
:102490000384F0BD0A460021018B4FF68F7319406B
:1024A0001143018370470A460021018B48F6FF73F0
:1024B00019404FF6FF7303EA022319430183704763
:1024C0000A460021818B4FF68F7319401143818397
:1024D00070470A460021818B48F6FF7319404FF67A
:1024E000FF7303EA022319438183704721B10288F5
:1024F00042F08002028004E002884FF67F731A40A7
:102500000280704721B1828842F00402828004E098
:1025100082884FF6FB731A408280704721B182880F
:1025200042F00802828004E082884FF6F7731A4076
:102530008280704721B1828842F00102828004E0EB
:1025400082884FF6FE731A40828070470A46002147
:10255000018B4FF6F77319401143018370470A4608
:102560000021018B4FF2FF7319404FF6FF7303EA0E
:1025700002231943018370470A460021818B4FF6DD
:10258000F77319401143818370470A460021818BFC
:102590004FF2FF7319404FF6FF7303EA022319430A
:1025A000818370470A460021018B4FF6FB73194067
:1025B0001143018370470A460021018B4FF6FF3318
:1025C00019404FF6FF7303EA022319430183704752
:1025D0000A460021818B4FF6FB731940114381831A
:1025E00070470A460021818B4FF6FF3319404FF6A2
:1025F000FF7303EA02231943818370470A460021CF
:10260000018B4FF67F7319401143018370470A46CF
:102610000021018BC1F30E014FF6FF7303EA022381
:102620001943018370470A460021818B4FF67F735F
:1026300019401143818370470A460021818BC1F301
:102640000E014FF6FF7303EA02231943818370479B
:102650000A460021018C4FF6FD7319401143018495
:1026600070470A460021018C4FF6F7731940114359
:10267000018470470A460021018C4FF6DF73194030
:102680004FF6FF7303EA02131943018470470A46A9
:102690000021018C4FF67F7319404FF6FF7303EA58
:1026A00002131943018470470A460021018C4FF63A
:1026B000FF5319404FF6FF7303EA022319430184C5
:1026C00070470A460021018C4FF2FF7319404FF604
:1026D000FF7303EA02231943018470470A4600216D
:1026E000018C4DF6FF7319404FF6FF7303EA023376
:1026F00019430184704730B5002301248C40A3B2F4
:10270000048C9C430484048C02FA01F5ADB22C4382
:10271000048430BD30B5002304248C40A3B2048C63
:102720009C430484048C02FA01F5ADB22C4304846A
:1027300030BD70B50346002000241846183001252E
:102740008D40ACB21D8CA5431D8409B1082909D167
:1027500000EB6100056825F070050560056815430C
:1027600005600EE00D1FC5F34E052844056825F4ED
:10277000E045056005684FF6FF7606EA0226354318
:10278000056070BD21B1028842F00202028004E0BF
:1027900002884FF6FD731A400280704721B102880B
:1027A00042F00402028004E002884FF6FB731A40F4
:1027B0000280704721B1828842F08002828004E06A
:1027C00082884FF67F731A408280704702884FF6E6
:1027D000F7731A40028002880A4302807047828899
:1027E0004FF68F731A40828082880A438280704736
:1027F00002894FF6F8731A40028102890A43028166
:10280000704702894FF67F731A40028102890A439A
:102810000281704781847047818570478186704747
:102820000187704781877047A0F840107047028881
:102830004FF6FF431A40028002880A430280704725
:102840000146888E70470146088F70470146888F81
:1028500070470146B1F8400070470146888C7047C8
:102860000146088D704702460020138A0B400BB1C9
:10287000012000E000207047CA430282704730B553
:102880000246002000230024158A05EA01039589E9
:1028900005EA010413B10CB1012000E0002030BDB5
:1028A000CA4302827047000010B50446FB488442C8
:1028B00009D101218803FEF75DFE00214FF480401D
:1028C000FEF758FE32E0F648844209D1012148045F
:1028D000FEF75DFE00214FF40030FEF758FE25E0C4
:1028E000F048844209D101218804FEF750FE0021FE
:1028F0004FF48020FEF74BFE18E0EB48844209D1EC
:102900000121C804FEF743FE00214FF40020FEF72A
:102910003EFE0BE0E548844208D101210805FEF7A0
:1029200036FE00214FF48010FEF731FE10BD2DE978
:10293000F04786B005460E460024A24600BFA146D9
:102940000027B08900B100BF2F462C8A4CF6FF70DB
:102950000440F08804432C82AC894EF6F310044006
:10296000B08831890843718908430443AC81AC8A3B
:102970004FF6FF400440B0890443AC8201A8FEF743
:10298000F3FCC648874202D1DDF810A001E0DDF873
:102990000CA0A88900F4004040B10AEBCA0000EB8B
:1029A0000A1031684900B0FBF1F807E00AEBCA00F1
:1029B00000EB0A1031688900B0FBF1F86420B8FB25
:1029C000F0F004012009642101FB1089A88900F4BA
:1029D000004040B1322000EBC900B0FBF1F000F044
:1029E0000700044308E0322000EB09106421B0FB2B
:1029F000F1F000F00F0004432C8106B0BDE8F08731
:102A00004FF41651016000218180C18001810C21A9
:102A1000418100218181704710B502460020108A53
:102A20004FF2FF0318400B884C8823438C882343C4
:102A3000CC8823431843108210BD002101804180BF
:102A40008180C180704721B1828942F40052828125
:102A500004E082894DF6FF731A4082817047F0B519
:102A60000346002400260025002040F66A17B942DC
:102A700000D100BF1846C1F3421401F01F06012720
:102A800007FA06F5012C01D10C3004E0022C01D12B
:102A9000103000E014301AB107682F43076002E0DD
:102AA0000768AF430760F0BD1AB1838A0B43838286
:102AB00002E0838A8B4383827047028A4FF6F07369
:102AC0001A400282028A0A430282704782894FF2C8
:102AD000FF731A40828182890A438281704721B143
:102AE000828942F00202828104E082894FF6FD73FE
:102AF0001A4082817047028A4FF6DF731A400282C1
:102B0000028A0A430282704721B1028A42F480425B
:102B1000028204E0028A4BF6FF731A400282704779
:102B2000C1F308028280704701468888C0F308001C
:102B30007047818941F0010181817047028BD2B2D7
:102B40000283028B42EA012202837047028B02F465
:102B50007F420283028B0A430283704721B1828A3B
:102B600042F02002828204E0828A4FF6DF731A402C
:102B70008282704721B1828A42F01002828204E090
:102B8000828A4FF6EF731A408282704721B1828A9F
:102B900042F00802828204E0828A4FF6F7731A40FC
:102BA0008282704721B1828942F40042828103E02F
:102BB0008289C2F30E028281704721B1828A42F477
:102BC0000062828204E0828A4FF2FF731A4082829E
:102BD0007047828A4FF6FB731A408282828A0A43C8
:102BE0008282704721B1828A42F00202828204E02E
:102BF000828A4FF6FD731A40828270470246002097
:102C0000B1F5007F00D100BF13880B400BB101204C
:102C100000E00020704701F40072B2F5007F00D19F
:102C200000BFCA430280704770B5024600240023EB
:102C30000025002040F66A16B14200D100BFC1F362
:102C4000421501F01F03012606FA03F3012D02D1FC
:102C50009689334006E0022D02D1168A334001E006
:102C6000968A33400C12012606FA04F41688344082
:102C700013B10CB1012000E0002070BD10B500229E
:102C8000002340F66A14A14200D100BF0A120124B9
:102C90009440A3B2DC43048010BD00000038014022
:102CA0000044004000480040004C004000500040FC
:102CB00010B50121C802FEF76AFC00214FF4006044
:102CC000FEF765FC10BD0021194A126822F4C0719C
:102CD0000143174A1160704708B50021009114495B
:102CE000096821F07F01009100F07F01009A1143F3
:102CF00000910F4A0099116008BD01200D4908603C
:102D0000704700F07F010A4A121F1160704740F0BF
:102D10008001074A121F116070470548001D0068B6
:102D2000C0B2704700200249091D086070470000CA
:102D3000042C0040A480054210B50120FEF734FCAD
:102D40000020FEF731FC10BD2A4908607047294970
:102D5000091F0860704727498431086070470146A1
:102D60000020254A10884FF67F4210400843224A2F
:102D700010807047014600201F4A10884FF680726D
:102D8000104008431C4A1080704708B5002200928A
:102D9000194A2C3A0092009A02440092009A11605B
:102DA00008BD08B501460020009013482C3800905B
:102DB0000098084400900098008808BD0D489C3099
:102DC0000068C0B270470C480830008840F001002D
:102DD00009490831088070470648A0300068C0B231
:102DE000704705480830008840F002000249083169
:102DF0000880704704860D422C6C00403149014325
:102E0000314A1160704770B5002100230F22C47849
:102E100004B32D4C246804F4E064C4F5E064210A92
:102E2000C1F10403CA40447804FA03F184781440E1
:102E300021430901254C0678A155047804F01F05AB
:102E40000124AC4005786D11AD0005F1E025C5F811
:102E5000004109E0047804F01F050124AC401C4D3A
:102E60000678761145F8264070BD1A4A0A4002439A
:102E7000154B1B1F1A60704739B1134A121D126897
:102E80000243114B1B1D1A6006E00F4A121D126807
:102E900082430D4B1B1D1A607047042808D14FF068
:102EA000E021096941F004014FF0E022116107E0DF
:102EB0004FF0E021096921F004014FF0E022116197
:102EC000704700000000FA050CED00E000E400E0AF
:102ED00080E100E080FFFF1F10B501210807FEF729
:102EE00056FB00214FF08050FEF751FB10BD2A49E0
:102EF0000862704728490861704701460020274A48
:102F0000106820F0E0000843106070472249A031AB
:102F10000860704710B502460020204B186820F06A
:102F20000300104318601E4B1B6843F004031C4C45
:102F30002360012901D130BF00E020BF184B1B687E
:102F400023F00403164C236010BD1448006840F0C1
:102F50000400124908600846006840F0020008605A
:102F60000F48006840F004000D49086000BF00BF32
:102F700030BF704701460020084A52680A400AB133
:102F8000012000E0002070470449096841EA8001FF
:102F9000024A11607047000000000E4200700040BD
:102FA00010ED00E00146002209B90020704700BF83
:102FB000087800B902E0521C491CF9E700BF10462E
:102FC000F4E770472DE9F047064688461746FFF7B5
:102FD000F8FF06EB4601F74800EBC100056906EB78
:102FE0004601F44800EBC100D0F80CA04FF00009F6
:102FF000554524DD06EB4601EE4800EBC100806834
:10300000441BBC4201DA204600E03846044606EB89
:103010004602E84800EBC20040684119224640469B
:103020000CF06AFCA144A0443F1B254406EB46017A
:10303000E04800EBC1008068A84200D10025AAEB5F
:103040000504BC4201DA204600E038460446002C64
:103050000EDD06EB4602D74800EBC200406841197E
:10306000224640460CF048FCA144A0443F1B2544A6
:10307000B9F1000F05D006EB4601CE4800EBC100C8
:1030800005614846BDE8F0872DE9F04704468946CA
:103090001646FFF796FF04EB4401C648303800EBB4
:1030A000C100007D00F0030002282BD004EB440196
:1030B000C048303800EBC100D0F8108004EB440168
:1030C000BC48303800EBC100C068A8EB0000451ECA
:1030D000002D07DA04EB4401B648303800EBC1009C
:1030E00080680544AE420DDD04EB4401B148303840
:1030F00000EBC100007D00F0030010B90020BDE826
:10310000F0872E460EB90020F9E7002700BF04EB38
:103110004401A848303800EBC100D0F8108004EB1F
:103120004401A448303800EBC100C068A8EB00009F
:10313000451E002D07DA04EB44019E48303800EBB1
:10314000C1008068054404EB44019A48303800EB24
:10315000C10004EB440281689648303800EBC2009D
:10316000C068081AA84201DD28460EE004EB4401BD
:103170009048303800EBC10004EB440281688D4870
:10318000303800EBC200C068081A0546B54201DAC3
:10319000284600E03046054604EB440285493039B4
:1031A00001EBC20104EB44034A688249303901EB68
:1031B000C301C96850182A4649460CF09DFB2F44AC
:1031C000A944761B04EB44017A48303800EBC10077
:1031D000C068411904EB44027648303800EBC20065
:1031E000C16004EB44017348303800EBC100C16892
:1031F00004EB44026F48303800EBC2008068814223
:1032000007D1002104EB44026A48303800EBC200C9
:10321000C160002E7FF47BAF384670E770B505467D
:103220000C462046FFF7BEFE06463246214628469B
:10323000FFF72AFF70BD38B5012269460020FFF76D
:10324000C1FE0446012C02D19DF8000038BD4FF0AC
:10325000FF30FBE710B500BFFFF7EDFF0028FBDBF9
:1032600010BD10B5FFF7ADFE52484838846D406D73
:10327000A04201D0012010BD0020FCE72DE9F04163
:1032800004460D4616461F46DDF81880FFF799FEE6
:10329000484848380069A0422CD904B304EB4401E3
:1032A0004448303840F8315004EB440100EBC10091
:1032B000466004EB44013F48303800EBC1008760B2
:1032C000002104EB44023B48303800EBC2000161AE
:1032D00004EB44023748303800EBC200C16004EB15
:1032E00044013448303800EBC100C0F8148000209D
:1032F000BDE8F0814FF0FF30FAE72DE9F0410446D8
:103300000D4616461F46DDF81880FFF75AFE29487D
:1033100048384069A04227D9E4B104EB440125486C
:1033200040F8315004EB440100EBC100466004EB6F
:103330004401204800EBC1008760002104EB4402F7
:103340001C4800EBC200016104EB4402194800EB89
:10335000C200C16004EB4401164800EBC100C0F894
:1033600014800020BDE8F0814FF0FF30FAE710B57F
:10337000FFF727FE10BD38B50446FF208DF800008A
:103380000A2C05DA04F13000C0B28DF8010008E023
:10339000102C05DA04F13700C0B28DF8010000E00E
:1033A00038BD05480470022269460020FFF76CFE14
:1033B00000BFF5E770000020A0000020F8B504462B
:1033C0000D46FF208DF800000A2C05DA04F13000CC
:1033D000C0B28DF801000AE0102C05DA04F13700C4
:1033E000C0B28DF8010002E04FF0FF30F8BD0222BC
:1033F00069460020FFF748FE29460020FFF70EFF30
:1034000006460A2C06DA0B4800783030C0B28DF838
:10341000010007E0102C05DA064800783730C0B20A
:103420008DF80100022269460020FFF72DFE30468C
:10343000DCE70000A000002070B504460E46A56839
:10344000681C6168814206DB20684655681CA060E4
:10345000E068401CE060D4E9011088420DD1A26808
:1034600021682069FFF710FEA168884203D04FF061
:10347000FF30E06001E00020A06070BD2DE9FE4F4C
:1034800081460F4614469846DDE90C5B01260197FC
:10349000B24605E00198B0FBF4F001900AF1010A90
:1034A0000198A042F6D2D04500D9C2460BF00100E7
:1034B000E0B9DDB10BF00200022805D1B8F1000F30
:1034C00002D13020009001E02020009009E0484621
:1034D0000099FFF7B1FFD9F80C00002801DABDE828
:1034E000FE8F1DB128466D1E5045F0D800E06643A2
:1034F000B7FBF6F0A04201D3012000E000204146D6
:10350000A8F10108012901DD012100E000210843A3
:103510000028ECD100BFB7FBF6F00290029800FB48
:103520001677E34A0298115C4846FFF785FFD9F801
:103530000C00002800DA03E0B6FBF4F6002EEAD116
:1035400000BF0BF0010078B175B108E020214846BA
:10355000FFF772FFD9F80C00002800DABFE71DB1B1
:1035600028466D1E5045F1D800BFB8E72DE9FC5F35
:1035700007460E4692469846DDE90C45002E01DAD4
:10358000704200E0304683464FF0010903E0BBFB88
:10359000FAFB09F10109D345F9D2C84500D9C14662
:1035A00034B1002E03DB05F00400042800D1641EB2
:1035B00005F0020010B1B8F1000F12D005F00100C3
:1035C00078B974B108E020213846FFF735FFF86874
:1035D000002801DABDE8FC9F1CB12046641E484566
:1035E000F1D8002E08DA76422D213846FFF724FF65
:1035F000F86800280CDAEDE705F00400042807D18C
:103600002B213846FFF718FFF868002800DAE1E7B9
:1036100005F00200022814D105F0010088B9B8F1C4
:10362000000F0ED16CB107E030213846FFF704FFE0
:10363000F868002800DACDE71CB12046641E484532
:10364000F2D84346524631463846CDE90045FFF7A9
:1036500015FF00BFBEE72DE9F04F99B081460D463A
:10366000144603A814904020159000201690CDF821
:103670006090179000BF15F8016B06B9D4E0252EB5
:1036800073D1002700BF2E78232E12D02B2E0CD002
:103690002D2E02D0302E10D103E047F001076D1C13
:1036A0000CE047F002076D1C08E047F004076D1CB2
:1036B00004E047F008076D1C00E001E000BFE2E70E
:1036C0004FF0000800BF2E78302E01DB392E00DDD0
:1036D00007E06D1CA6F1300008EB880100EB410803
:1036E000F1E700BF002013902E782E2E12D16D1C12
:1036F00000BF2E78302E01DB392E00DD09E06D1C75
:10370000A6F13000139901EB810100EB4100139009
:10371000EFE700BF2E7800BF6C2E01D0682E02D1DB
:1037200015F8016B00E000E0F6E700BF702E5BD0FB
:1037300008DC252E68D0582E35D0632E09D0642E93
:1037400067D113E0732E3CD0752E1DD0782E60D13A
:1037500028E02168081D2060D1F800A00AF0FF0BC6
:10376000594614A8FFF768FE53E055E02168081D8C
:103770002060D1F800A0CDE900870A22514614A8A4
:10378000139BFFF7F3FE44E02168081D2060D1F889
:1037900000A0CDE900870A22514614A8139BFFF729
:1037A0006DFE36E000BF2168081D2060D1F800A042
:1037B000CDE900871022514614A8139BFFF75EFE47
:1037C00027E02168081D2060D1F800B000BF1BF879
:1037D000016B06B906E0314614A8FFF72DFE1798D5
:1037E0000028F4DA00BF14E02168081D2060D1F839
:1037F00000A0002008210B461022CDE90010514600
:1038000014A8FFF73BFE04E0252114A8FFF714FEDF
:1038100000BF00BF6D1C03E0314614A8FFF70CFE8B
:1038200017980028BFF627AF00BF179800280ADDB9
:10383000169820B103A94846169AFFF725FCDDE942
:10384000161008441790179819B0BDE8F08F0FB400
:1038500038B5044606A800906A4620460599FFF749
:10386000FAFE38BC5DF814FB70B504460D46002620
:1038700007E022780FA10020FFF7E9FF641C701C0D
:1038800086B2AE42F5DB0DA10020FFF7E0FF70BD70
:1038900070B504460D46002607E0227805A10020F9
:1038A000FFF7D5FF641C701C86B2AE42F5DB70BD1D
:1038B000D813010825303278200000000D0A0000DE
:1038C00008B500214FF00060FFF7CFFA19208DF8FE
:1038D000000004208DF8010000208DF80200012076
:1038E0008DF803006846FFF78EFA08BD3EB5044622
:1038F0000121C802FDF717FE7948FEF7C7F841F22B
:103900008830ADF8040041F61F40ADF800000020FB
:10391000ADF80600ADF8020001208DF808006946F8
:103920006F48FEF787F901216D48FEF7A5FF0122D8
:1039300011466B48FEF7F5FC21466948FEF7D6FCB8
:10394000FFF7BEFF3EBD1CB501210846FDF7EBFDAC
:1039500000F0CEF90A210220FDF772FB4FF48060DF
:10396000009000208DF8040008208DF8050001204B
:103970008DF806006846FCF78FFE1CBD38B504467E
:1039800000214FF00060FFF770FA36208DF800003C
:1039900004208DF8010001208DF802008DF803400D
:1039A0006846FFF730FA38BD3EB5044601211020C5
:1039B000FDF7C6FD4B48FEF769F84FF6FF70ADF80E
:1039C000040041F61F40ADF800000020ADF80600ED
:1039D000ADF8020069464348FEF72CF90121414841
:1039E000FEF74AFF012211463E48FEF79AFC2146A7
:1039F0003C48FEF77BFC2046FFF7C0FF3EBD10B5FC
:103A0000FCF75AFC10BD10B5FFF7F9FF01210220A9
:103A1000FDF796FD3448FEF739F83348FEF79AFC77
:103A2000012247213048FEF708FD00212E48FEF70D
:103A30005DFD10BD08B5FFF7E6FF0120FFF7B4FFFD
:103A4000482000F089F800F0D3FC01214FF4E13068
:103A500007F025FD012007F069FD07F07CFDAA2095
:103A6000009000BF9DF8000008B9012000E0002090
:103A700018B100BF71B600BFFEE700BF00F0E0F86C
:103A800008BD38B504460020009000211648FEF716
:103A9000C1FE21461448FEF7C5FE01211248FEF77B
:103AA00025FC0DE09DF80000401CC0B2009004EB26
:103AB00044009DF80010884202D10020009005E0EB
:103AC00008210948FEF7CFFE0028EBD000BF0021F7
:103AD0000548FEF70BFC08210348FEF7CDFE38BD74
:103AE000002C0140001000400004004010B50120EF
:103AF000FDF708FE0220FDF705FE10B10220FDF7DC
:103B000011FE0120FDF70EFEFDF7CEFD10BD70B5D4
:103B100012E01E2C0BD1002504E0642000F032F8E6
:103B2000681CC5B20A2DF8DB012009490870642021
:103B300000F028F8601CC4B24FF480710548FDF70E
:103B4000FCF90028E5D04FF48070FCF71CFE70BD36
:103B5000A1000020000C01404FF0E021096921F094
:103B600007014FF0E0221161C21700EB5272D21030
:103B7000314B1A60194609684FF47A7251432F4A43
:103B80001160704701462D4A12684A434FF0E02306
:103B90005A6100229A611A46126942F001021A61C2
:103BA0001A46126942F001021A6100BF4FF0E0228A
:103BB000106900F001021AB100F48032002AF5D039
:103BC0004FF0E022126922F007024FF0E0231A6161
:103BD00000229A61704730B50446002504E04FF496
:103BE0007A70FFF7CFFF6D1CA542F8D330BD0146B8
:103BF000114A12684A434FF0E0235A6100229A6149
:103C00001A46126942F001021A6100BF4FF0E02229
:103C1000106900F001021AB100F48032002AF5D0D8
:103C20004FF0E022126922F007024FF0E0231A6100
:103C300000229A6170470000A8000020A400002024
:103C40001FB501210420FDF76EFC01210820FDF7BE
:103C50006AFC01211020FDF766FC0120ADF80C0084
:103C600010208DF80F0003208DF80E0003A91D48C9
:103C7000FDF7D0F84FF48060ADF8040010208DF807
:103C8000070003208DF8060001A91748FDF7C2F8C8
:103C90000820ADF8080028208DF80B0003208DF8CF
:103CA0000A0002A91048FDF7B5F84FF48060ADF89E
:103CB000000028208DF8030003208DF802006946DB
:103CC0000A48FDF7A7F81FBD10B50446012C04D122
:103CD00004210648FDF74DF903E004210348FDF7F0
:103CE00046F910BD00080140000C014000100140E1
:103CF0001CB54FF48060FFF781F803208DF80400B5
:103D00008DF8050001208DF806008DF8070001A848
:103D1000FFF779F84FF48060FFF770F828208DF8EE
:103D2000000005208DF8010001208DF802008DF8BB
:103D300003006846FFF767F81CBD000030B585B08A
:103D400005460C4601214804FDF7FAFB0121052038
:103D5000FDF7E9FB0420ADF8000018208DF8030002
:103D600001208DF8020069467D48FDF753F80820D0
:103D7000ADF8000048208DF8030069467848FDF74B
:103D800049F87848FEF790FD01950020ADF808004D
:103D9000ADF80A00ADF80C00ADF810000C20ADF83D
:103DA0000E0001A96F48FEF7C2FD224640F22551E0
:103DB0006C48FEF754FE00BF00BF21466948FEF77D
:103DC00042FE05B030BD38B5044600214FF000601A
:103DD000FFF74BF826208DF8000001208DF8010038
:103DE00000208DF802008DF803406846FFF70BF8BD
:103DF00038BD10B504460BE000BF5A48008800F0FB
:103E000080000028F9D014F8011B5648FEF788FE00
:103E100020780028F0D110BD38B50446E11704EB36
:103E200011710911A4EB01110A290BDA2046E117DF
:103E300004EB11710911A4EB01113031C9B28DF8F5
:103E400001100AE02046E11704EB11710911A4EBFF
:103E500001115731C9B28DF80110E11704EB11714E
:103E60000A22B2EB211F09DD2046E11704EB117194
:103E700009113031C9B28DF8001008E02046E11771
:103E800004EB117109115731C9B28DF800102020CF
:103E90008DF8020000208DF803006846FFF7A9FFA7
:103EA00038BD70B504460D46002605E02078FFF7C2
:103EB000B3FF641C701C86B2AE42F7DB70BD10B558
:103EC000044600BF2748008800F080000028F9D091
:103ED00021462448FEF724FE10BD70B504460D4669
:103EE00021A10020FFF79AF929462046FFF7BCFCE4
:103EF000002605E02078FFF7E2FF641C701C86B204
:103F0000AE42F7DB70BD10B5044600BF1D48008807
:103F100000F080000028F9D021461A48FEF700FE84
:103F200010BD70B504460D46002605E02078FFF769
:103F3000EAFF641C701C86B2AE42F7DB70BD70B540
:103F400004460D46E1B20748FEF7EAFD00BF4021F6
:103F50000448FEF753FE0028F9D0204670BD00004B
:103F600000080140004400401B5B313B33356D5578
:103F700053415254322053454E443A1B5B306D0A34
:103F8000000000000038014010B50121C802FDF713
:103F9000D7FA0020FEF797FEFF20FEF79DFE402097
:103FA000FEF7B5FE10BD70B5044600BF45F2555092
:103FB000FDF77EF80620FDF77EF81A2C00DB1A24A8
:103FC0009D2004FB00F5A8B2FDF778F8FDF779F81D
:103FD000FDF77CF870BD00002DE9F04707460C4660
:103FE0001546681C00EBD071C1F34F084FF0000973
:103FF000284605EBD0714910A5EB410111B14FF0F6
:10400000010901E04FF00009FCF7ACF88246FCF72B
:10401000E2FB3520FCF77AFE3846FCF721FC15E080
:10402000B8F1000F07D1B9F1010F04D114F8016BF9
:1040300046F47F4605E014F8016B14F8011B46EACC
:10404000012631463846FCF70EFDBF1C5FEA08002A
:10405000A8F101011FFA81F8E2D1FCF7C8FB504634
:10406000FCF784F8BDE8F08710B503E010F8013BD9
:1040700001F8013B1300A2F10104A2B2F6D110BD78
:1040800010B50446FCF7A7FB3520FCF73FFE2046A1
:10409000FCF7E6FBFCF7ABFB10BD7CB51A480088CB
:1040A000ADF800001848808880B2ADF802001648CC
:1040B0004068000CADF80400FCF754F80546FCF726
:1040C0008AFB3420FCF722FE1048FCF7C9FB0024D1
:1040D00008E03DF814100D4A02EB4400FCF7C3FC65
:1040E000601CC4B2032CF4DBFCF781FB2846FCF710
:1040F0003DF87CBD05480088034908800348801CC2
:104100000068486070470000AC000020001C0008F8
:10411000F0B503460C461546642093FBF0F0C6B29A
:10412000642093FBF0F700FB1730C1B2132E02DDC1
:1041300001F16400C1B20846CF1701EB977701EB9C
:10414000A707BAB2072092FBF0F700FB172082B254
:104150005719601EDFF84CC31CF80000384482B2C7
:10416000CF1701EB9777BF10A1EB87071FB9032C7F
:1041700001DA501E82B2072092FBF0F700FB1720F5
:10418000C0B2F0BD0146CA1701EB92729210A1EBCA
:10419000820292B9642091FBF0F200FB121050B938
:1041A0004FF4C87091FBF0F200FB121008B9012027
:1041B00070470020FCE70120FAE70020F8E72DE92E
:1041C000F0410546002700240026FDF731FA074696
:1041D000B548B7FBF0F4B5480088A04239D0B349E0
:1041E0000C8040F2B27610E03046FFF7CBFF40B1D2
:1041F000B4F5B77F02D3A4F5B77404E0701C86B29F
:1042000006E0A4F26D14701C86B2B4F5B67FEBD84C
:1042100000BF2E80002615E02888FFF7B3FF30B1DD
:10422000012E04D11D2C01D31D3C09E00CE0A04857
:10423000805DA04203D89E48805D241A00E003E020
:10424000701C86B21C2CE7D200BF701CA870601CCA
:10425000E8709548B7FBF0F100FB11744FF4616012
:10426000B4FBF0F028714FF46160B4FBF0F100FB97
:1042700011403C21B0FBF1F068714FF46160B4FB78
:10428000F0F100FB11403C21B0FBF1F201FB120008
:10429000A871EA78A9782888FFF73AFFA872012068
:1042A000BDE8F08137B50024BDF8000040F2B271DE
:1042B000884205DBBDF8000040F63301884201DD8D
:1042C00001203EBD40F2B2750AE02846FFF75AFFD2
:1042D00010B17848044401E077480444681C85B272
:1042E000BDF80000A842F0DC9DF80200401EC0B2FC
:1042F0008DF80200002511E06D48405D40F2A321D9
:10430000484304EBC014BDF80000FFF73BFF18B1B1
:10431000012D01D164480444681C85B29DF8020057
:10432000A842E9DC9DF80300401E40F2A321484367
:1043300004EBC0149DF80400C0EB4011C1EB002059
:1043400004EB00149DF80500C0EB001004EB8004A2
:104350009DF806000444FDF7A7F92046FDF771F922
:10436000FDF7A2F90020ACE70146002000BF06E0FF
:1043700001F0010202B104E04910421CD0B206284B
:10438000F6DB00BF7047FEB504460D46072D01D091
:104390000020FEBD00BFFBF7E5FE064600BF20780B
:1043A00000F5FA604549088060788870A078C87088
:1043B000E07808712079487160798871A079FFF7F9
:1043C000D3FF3E4988720846016800914168019117
:1043D0008068024602900098FFF764FF0120FDF715
:1043E000A1F9FDF761F93046FBF7C0FE0120D0E7E7
:1043F0001CB500200190009001214FF0C050FDF746
:104400009FF80120FEF773FD0420FEF7CAFC45F279
:104410005551884222D0FEF78FFC4FF44070FCF7D4
:1044200099FF0120FCF79CFFFDF747F9FDF73CF9E8
:1044300001210846FDF7DCF8FDF736F94FF223407D
:10444000FDF70CF9FDF730F907211D48FFF79BFF39
:1044500045F255510420FEF798FC0EE07B20FCF756
:1044600091FE10B97A20FCF78DFEFDF726F90121A7
:104470000846FDF7BDF8FDF717F91048FFF79FFE56
:10448000FDF79BF800201CBD10B5FDF7D1F810BD5D
:104490000146062901DD0846704701208840C0B268
:1044A000FAE70000E813010880510100BC00002079
:1044B000F41301080085E2018033E101640B002060
:1044C000B400002010B52CA10020FEF7A7FEFBF7DA
:1044D00051FE10BD2FA10020FEF7A0FEFBF74AFE03
:1044E0003548006800F0010000B100BE00BFFEE7E3
:1044F00032A10020FEF792FEFBF73CFE00BFFEE774
:1045000037A10020FEF78AFEFBF734FE00BFFEE76E
:104510003BA10020FEF782FEFBF72CFE00BFFEE76A
:1045200010B540A10020FEF779FEFBF723FE10BD79
:1045300010B543A10020FEF771FEFBF71BFE10BD76
:1045400010B547A10020FEF769FEFBF713FE10BD72
:1045500010B54BA10020FEF761FEFBF70BFE10BD6E
:1045600010B501214E48FEF78AF918B101214C48D7
:10457000FEF796F910BD00001B5B313B33356D4EE5
:104580004D495F48616E646C65722E2E2E1B5B3048
:104590006D0A00001B5B313B33356D486172644628
:1045A00061756C745F48616E646C65722E2E2E1B93
:1045B0005B306D0A00000000F0ED00E01B5B313B5A
:1045C00033356D4D656D4D616E6167655F48616E38
:1045D000646C65722E2E2E1B5B306D0A000000008D
:1045E0001B5B313B33356D4275734661756C745F8F
:1045F00048616E646C65722E2E2E1B5B306D0A0056
:104600001B5B313B33356D55736167654661756C76
:10461000745F48616E646C65722E2E2E1B5B306D6C
:104620000A0000001B5B313B33356D5356435F4836
:10463000616E646C65722E2E2E1B5B306D0A00005D
:104640001B5B313B33356D44656275674D6F6E5F43
:1046500048616E646C65722E2E2E1B5B306D0A00F5
:104660001B5B313B33356D50656E6453565F48615B
:104670006E646C65722E2E2E1B5B306D0A0000007E
:104680001B5B313B33356D5379735469636B5F4802
:10469000616E646C65722E2E2E1B5B306D0A0000FD
:1046A0000010004010B500BFFBF75CFD044600BFE2
:1046B000FE480078022804D002F0DBFD0220FB490E
:1046C00008702046FBF752FD10BD7CB5F848006825
:1046D000019000BFFBF746FD044600BF0421F548EA
:1046E000FCF745FC0020F44908700520EF490870EC
:1046F000FFF7D8FFF14800231A46456DF0480188BE
:104700000088A847ED48C16D019888470120FFF750
:1047100039FAEA498868804700902046FBF726FD71
:104720007CBD10B5FFF7D1FF02F094FD044660B2E6
:1047300010BD00B587B000BF01210420FCF7F3FED7
:104740001020ADF8180001208DF81A0010208DF807
:104750001B0006A9DB48FCF75DFB00BF00BFD94882
:104760000C30006840F01000D6490C31086000BFE2
:1047700000BF01210803FCF7D6FE01210420FCF74D
:10478000D2FEE020ADF8040003208DF806001820CA
:104790008DF8070001A9CB48FCF73CFB0021CA4873
:1047A000FDF7B6F80020ADF808004FF48270ADF8C0
:1047B0000A000020ADF80C00ADF80E00ADF81000B6
:1047C0004FF40070ADF812001820ADF8140000206E
:1047D000ADF816000720ADF8180002A9BA48FCF79A
:1047E000D1FF0121B848FDF793F800BF07B000BD25
:1047F00070B5D621B5480BF0A6F800BFFBF7B2FCA8
:10480000064600BFB2A10020FEF708FDFFF791FFAA
:10481000FFF799F84FF4FA70FFF7B4F902F0A5FC2E
:10482000FFF753FF02F00CFDA0490870FFF779FF76
:10483000C5B2002408E0AC480178284661F35F0067
:10484000A9490870601CC4B2102CF4DBA64800789B
:1048500040F08000A4490870FFF724FF4FF47A70FD
:10486000A249088008460088401100EB4001C1EBD6
:10487000C010FA2101EBC0009D490880D421934863
:104880000BF061F891480021A0F8D410FFF730FA3E
:1048900000BF61B600BF3046FBF768FC70BD70B565
:1048A00004462046E11704EB1171C1F30F1684B1E1
:1048B00000BF00BFFBF756FC054600BF1020FFF706
:1048C000E0F82846FBF752FC3000A6F101018EB259
:1048D000EFD170BD844800786D2148434330824950
:1048E000087008460078704770B5FFF7F3FF00F0D6
:1048F0000F0000F11105002405E07D480088FFF756
:10490000CEFF601CC4B2AC42F7DB70BD10B50446EC
:1049100005E040F25230FFF7C2FF601E84B2002C67
:10492000F7D110BD10B500241EE00120FFF7EEFF07
:104930004FF480615F48FCF700FB98B15F48D0F806
:10494000B0104FF6FF7088475C48816B00208847A5
:1049500001215848FCF70BFB66480078401C65496C
:10496000087005E0601C84B242F210708442DCDB07
:1049700000BF10BD70B506460C465F48006820F4C5
:1049800080605D49086000BFFBF7ECFB054600BF97
:10499000204602F0D2FBFFF785FE4848416C57489D
:1049A00088472146304602F036FC01214148FCF799
:1049B000E0FAFFF7B7FF2846FBF7D8FB4E48006840
:1049C00040F480604C49086070BD38B505464C48DD
:1049D000FDF743FF009000242BE04A4810F8340014
:1049E0006978884223D1474800EBC4004078A97811
:1049F00088421CD1434800EBC4008078E9788842A3
:104A000015D1404800EBC400C078297988420ED106
:104A1000BDF8000000123B4901EBC4010871BDF86C
:104A20000000C1B2374800EBC400417103E0601CD4
:104A3000C4B2642CD1DB00BF642C6ADB002465E0C7
:104A4000304810F8340078BB2E4800EBC4004078A2
:104A500050BB2C4800EBC400807828BB294800EBF1
:104A6000C400C07800BB6878264901F83400A878F3
:104A700001EBC4014870E878224901EBC401887059
:104A80002879204901EBC401C870BDF8000000126C
:104A90001C4901EBC4010871BDF80000C1B21948FE
:104AA00000EBC400417133E02EE032E0E200002070
:104AB0001414010800100140D5000020B0140108B2
:104AC0001C0100200008014000300140C50B0020FF
:104AD0001B5B313B33356D4D52464920494E49549D
:104AE0002E0A1B5B306D0A00E3000020EA00002064
:104AF000EC000020E500002000040140BF1200206F
:104B0000001000409B0C0020601CC4B2642C97DB9A
:104B100000BF38BD30B502460B464FF6FF7000218E
:104B200017E0555C80EA052008240EE000F40045FB
:104B30002DB148F2050585EA4005A8B203E04FF61D
:104B4000FF7505EA4000651EECB2002CEED14D1C4D
:104B5000E9B29942E5DB30BD70B504462078801C8F
:104B600020702078401CC5B2A81EC1B22046FFF7B5
:104B7000D1FF0646310AA81E2154681E2654284635
:104B800070BD2DE9FC4706460C464FF00008C146B3
:104B9000F8A000680190FFF785FD3078401CC7B28F
:104BA0003046FFF7D9FF07460121F348FCF7DFF94C
:104BB0000020F24908703046FFF707FF0020034647
:104BC000024601460090FEF759FBEDA10020FEF7DA
:104BD00025FB39463046FEF747FE24B939463046B4
:104BE000FFF7C8FE25E0012C23D1042500BF00F00B
:104BF000E8FE00F0F8FE4FF00109B9F1000F04D013
:104C000039463046FFF7B6FE12E0E2A10020FEF77B
:104C100005FB02F015FBE7490870FFF743FD25B1DE
:104C2000FFF762FE681EC5B2E1E74FF0010800BF62
:104C300000BFFFF74AFD4046BDE8FC8710B50446BB
:104C4000D622DD4920460AF057FE10BD70B5044655
:104C50002078401CC5B229462046FFF75BFF064678
:104C60002078801E2070F0B270BD0EB5002002903A
:104C7000694601A802F00BFB9DF80400002853D000
:104C8000CE48012202A9836A9DF8000098479DF84A
:104C90000400002848D0D421C7480AF054FE9DF8EB
:104CA0000800C54908709DF80010491CC8B2C349E6
:104CB0009DF808208B6AC049491C98470020BE49CE
:104CC00081F8D400BEA1FEF7A9FA9DF80810491C8E
:104CD000B948FEF7C9FDB848FFF7B8FF20B1BFA13A
:104CE0000020FEF79BFA1FE0C3A10020FEF796FA12
:104CF000C7A10020FEF792FA02F0ACFAAE4981F8A3
:104D0000D400084690F8D50000F07F01AA4880F84A
:104D1000D51003F011FFC4480078FEF7D5FFC24854
:104D20000078C043C04908700EBD10B5BF48006888
:104D300020F48060BD490860FFF7B4FC4FF4806048
:104D4000FBF721FD10BD10B500BFFBF70BFA0446C1
:104D500000BF98480078022801D1012000E000201F
:104D600094490978032901D1012100E00021084379
:104D700090490978042901D1012100E0002108436C
:104D80008C490978052901D1012100E0002108435F
:104D900088490978062901D1012100E00021084352
:104DA00020B1FFF77FFC0220824908702046FBF704
:104DB000DDF910BD7F480078072800D0704700BF9C
:104DC000FCE710B59948006800F4806098B19848F5
:104DD000007801280FD197480078401C9549087049
:104DE00000BF0020924908704FF48060FBF7CBFCB5
:104DF00000BFFFF73AFF10BD70B504462046E1172B
:104E000004EB1171C1F30F16ACB100BF00BFFBF78B
:104E1000A9F9054600BF1020FEF733FE2846FBF730
:104E2000A5F98548007800B104E03000A6F1010141
:104E30008EB2EBD100BF70BD70B58048048800BF52
:104E4000FBF790F9054600BF01207D490870284610
:104E5000FBF78CF909E040F25230FFF7CDFF7648BE
:104E6000007800B103E0601E84B2002CF3D100BFD3
:104E700000BFFBF777F9054600BF00206E490870B8
:104E80006F4908702846FBF771F970BD6C480078CF
:104E900010B1012068490870704746480078704793
:104EA00068480078704763480078704710B504463A
:104EB00065480470FFF709FC10BD6348007870472F
:104EC0000920624908700220614908700120614987
:104ED0000870704770B5122000F046FB00F0040522
:104EE00004E0122000F040FB00F00405002DF8D093
:104EF000042D07D1122000F037FB064606F001040E
:104F000000F0DBFB2CB954A10020FEF787F900204C
:104F100070BD59A10020FEF781F90120F8E770B5B6
:104F20004FF47A7500BFFFF7D5FF00B91CE000F021
:104F30005AFD0AF0CFFCC4B20A2094FBF0F100FB4A
:104F4000114000EB40060AF0C5FC0A2190FBF1F28B
:104F500001FB12003044401DC4B22046FFF7D6FCCE
:104F6000281B05B2002DDEDC00BF002D01DD012075
:104F700070BD93E0FFFFFFFF00100140D50000204F
:104F80001B5B313B33316D545820444154411B5B12
:104F9000306D0A001B5B313B33356D4D5246492065
:104FA000434341206661696C65642E0A1B5B306D6A
:104FB0000A000000E2000020C50B0020B014010828
:104FC0001B5B313B33356D5278204D524649207082
:104FD00061636B65743A1B5B306D0A001B5B313B90
:104FE00033356D2E2E2E435243206661696C656405
:104FF0002E1B5B306D0A00001B5B313B33356D2E81
:105000002E2E435243204F4B2E1B5B306D0A000067
:105010001B5B313B33356D4D494649205278204F5B
:105020004B2E1B5B306D0A00F7000020000401408E
:10503000EE000020E6000020E7000020EA0000204B
:10504000E8000020E5000020E4000020F900002036
:10505000F8000020FA0000201B5B313B33316D4328
:1050600048414E4E454C20495320434C4541521B2C
:105070005B306D0A000000001B5B313B33316D4338
:1050800048414E4E454C204953204E4F5420434CEE
:105090004541521B5B306D0A00000000002070BDCE
:1050A00070B504460025C748848108E0681C85B2B5
:1050B0000A2D04DDFFF79CFBFFF707FB05E0C14865
:1050C000008900F001000028F0D000BFBD488089B1
:1050D000C0B270BD10B504462046FFF7E1FF10BD19
:1050E00010B5FF20FFF7DCFF10BD70B505460E467A
:1050F000002404E0305DFFF7EDFF601CC4B2AC4259
:10510000F8DB70BD70B505460E46002404E0FFF7DD
:10511000E7FF3055601CC4B2AC42F8DB70BD70B51F
:1051200004460D4600BFA848006820F01000A649BC
:10513000086000BF29462046FFF7D7FF00BFA248FE
:10514000006840F01000A049086000BF70BD2DE964
:10515000F04105460E46002400271FE000BF9A4894
:10516000006820F010009849086000BF4420FFF755
:10517000B1FFFFF7B5FF0446FF2C0FD000BF9248E8
:10518000006840F010009049086000BF781C80B2B1
:105190000746052802DD2046BDE8F081FF2CDDD161
:1051A00031462846FFF7AEFF00BF8748006840F051
:1051B00010008549086000BF2046EDE710B50021CA
:1051C0000846FFF7C4FF10BD2DE9F04106460F4623
:1051D00014461D464FF0000839463046FFF79FFF42
:1051E00029462046FFF7B3FF80464046BDE8F081E0
:1051F00010B5044600BF02217248FCF70DFC0028E0
:10520000F9D021466F48FCF7B4FB00BF01216D487F
:10521000FCF702FC0028F9D06A48FCF7ACFBC0B2EE
:1052200010BD70B505460E46144600BF66480068BE
:1052300020F010006449086000BF2846FFF74AFFCD
:10524000FF20FFF7D5FF207000BF5F48006840F0E7
:1052500010005D49086000BF70BD70B506460C4681
:10526000154600BF5848006820F0100056490860F5
:1052700000BF3046FFF72EFF29462046FFF735FFD7
:1052800000BF5148006840F010004F49086000BF5F
:1052900070BD10B5044600BF042C03DB00BF71B61F
:1052A00000BFFEE700BFFFF7FDF92046FFF7FEFD58
:1052B00046480078052801D1FFF707FA10BD10B560
:1052C000044600BF062C03DB00BF71B600BFFEE73B
:1052D00000BFFFF7E7F93E49085D01F0D0FF3B480A
:1052E0000078052801D1FFF7F0F910BD0146002034
:1052F00004E00A5C374B1A54421CD0B20428F8DB95
:10530000002070470120344908707047002032495E
:105310000870704730B505462F48007808B900205E
:1053200030BD0023002400210EE06A5C2948405C67
:10533000904201D1581CC3B22848405C904201D130
:10534000601CC4B2481CC1B20429EEDB042C01D09D
:10535000042B01D10020E3E70120E1E710B54FF471
:105360008060FBF7FFF900282BD01D49D1F8AC0075
:1053700080470446022C0ED101201A4908701848B3
:10538000D0F8B01002208847FFF71BFD16A10020BF
:10539000FDF744FF11E00120124908701048D0F8D1
:1053A000B0104FF6FF70884700BF00200D4908700D
:1053B0004FF48060FBF7E7F900BF0024FFF785F9A1
:1053C00000BF10BD003001400C080140E200002089
:1053D0000C140108F3000020F20000200014010862
:1053E000B0140108EE0000201B5B313B33356D52D9
:1053F00058444F4E4520496E746572727570742022
:1054000048617070656E65641B5B306D0A0000005A
:10541000002106E0002201E0531CDAB2782AFBDB0F
:10542000491C8142F6D3704770B504464FF40071B1
:10543000F648FBF79EFD4FF40061F448FBF799FD39
:1054400008251EE04FF40061F048FBF792FD04F0E0
:10545000800028B14FF48051EC48FBF788FD04E050
:105460004FF48051E948FBF784FD00BF00BF4FF4C3
:105470000061E648FBF77BFD00BF6006040E681E76
:10548000C5B2002DDED14FF40061E048FBF771FD9D
:105490004FF48051DD48FBF76AFD70BD10B5402127
:1054A000DA48FBF764FD10BD70B500244FF40071BD
:1054B000D648FBF75EFD4FF48051D448FBF757FD0B
:1054C000082519E04FF40061D048FBF752FD00BFFA
:1054D00000BF6006040E4FF40061CC48FBF747FDA7
:1054E0004FF48071CA48FBF728FD10B144F0010465
:1054F00000E000BF681EC5B2002DE3D14FF400618B
:10550000C248FBF736FD204670BD10B50446214663
:10551000C048FCF72EFA00BF0121BE48FCF77CFA18
:105520000028F9D0BB48FCF726FAC0B210BD70B510
:10553000044600BFB848006820F01000B649086073
:1055400000BF04F07F00FFF7E0FF05460020FFF7F3
:10555000DCFF054600BFB048006840F01000AE49CF
:10556000086000BF284670BD70B504462046FFF7AE
:10557000DEFF0546284670BD38B5044602252012D8
:105580008DF800009DF8000040F080008DF80000CC
:10559000E0B28DF8010000BF9F48006820F01000C5
:1055A0009D49086000BF002505E01DF80500FFF7D4
:1055B000ACFF681CC5B2022DF7DB00BF964800683F
:1055C00040F010009449086000BF38BD2DE9F0415B
:1055D00005460E46174600BF8F48006820F01000B1
:1055E0008D49086000BF05F07F00FFF78EFF0024A3
:1055F00005E00020FFF789FF3055601CC4B2BC42B3
:10560000F7DB00BF8448006840F010008249086062
:1056100000BFBDE8F08170B505460E461446012C6A
:1056200000DA70BD224631462846FFF7CFFF00BFA3
:10563000F7E72DE9F04105460E46174600BF7648CC
:10564000006820F010007449086000BF45F0800039
:10565000FFF75BFF002404E0305DFFF756FF601C9E
:10566000C4B2BC42F8DB00BF6B48006840F01000D9
:105670006949086000BFBDE8F08170B505460E4677
:105680001446012C00DC70BD224631462846FFF747
:10569000D0FF00BFF7E710B540F20910FFF76CFF2D
:1056A00010BD10B54FF48470FFF766FF10BD10B544
:1056B0004FF4C470FFF760FF10BD10B541F2FF203A
:1056C000FFF75AFF10BD70B5064640214F48FBF763
:1056D00050FC962402E000BF601EC4B2002CFAD138
:1056E00040214A48FBF743FC642402E000BF601EEF
:1056F000C4B2002CFAD1FFF7D4FF642402E000BF4B
:10570000601EC4B2002CFAD144F60930FFF734FF12
:105710004B20FFF729FF0446FFF7C9FF002406E0EE
:105720003E4931F81400FFF727FF601CC4B2032C78
:10573000F6DB3B490888FFF71FFF40F60B30FFF709
:105740001BFF40F62340FFF717FF0B20FFF70CFF6E
:105750000446344834490978405C06282AD1334944
:10576000334A1278895C4FF4E85202EB0111314A56
:10577000127801EB4201481CFFF7FEFE29492A4A34
:105780001278895C4FF4F05202EB0111C81CFFF74C
:10579000F3FE3120FFF7E8FE054605F0F80545F079
:1057A000050505F54450FFF7E7FE43F20C70FFF7DF
:1057B000E3FE1CE01D491E4A1278895C4FF4E85252
:1057C00002EB01111B4A127801EB4200FFF7D4FEF5
:1057D0001449154A1278895C4FF4F05202EB01111A
:1057E000C81CFFF7C9FE4FF41850FFF7C5FE41F67D
:1057F000FF70FFF7C1FE4FF40050FFF7BDFE42F20D
:105800000610FFF7B9FEFFF746FF70BD000C014020
:1058100000100140003001400C080140181401083C
:10582000361401084C140108F80000204214010845
:10583000F9000020FA00002070B50546FFF72BFFA5
:1058400000240AE005EB4501F64A02EB410131F87C
:105850001400FFF791FE601CC4B2032CF2DB40F68B
:105860000270FFF789FE40F6FD60FFF785FE44F207
:105870000110FFF781FE44F68450FFF77DFE42F2EF
:10588000FF40FFF779FE44F20100FFF775FE41F299
:105890003F10FFF771FEFFF710FF42F20D20FFF7F8
:1058A0006BFE0F20FFF760FE064606F55060FFF71F
:1058B00063FE40F20D10FFF75FFE00BF00BF00BFA8
:1058C00070BD10B51820FFF74FFE0446204610BDEE
:1058D0002DE9F04104460D4616461020FFF744FE20
:1058E000074607F550618819FFF746FE2A4621460C
:1058F0000020FFF790FEFFF7E0FEBDE8F0812DE904
:10590000F04180460D461646FFF7C5FE00240AE02A
:1059100006EB4601C34A02EB410131F81400FFF7E0
:105920002BFE601CC4B2032CF2DB40F6FD70FFF7C7
:1059300023FE40F60260FFF71FFE44F20110FFF75E
:105940001BFE44F68750FFF717FE4FF41050FFF789
:1059500013FE44F24100FFF70FFEFFF7AEFE41F2E7
:10596000F710FFF709FE05F50850FFF705FE0E20BA
:10597000FFF7FAFD074607F55060FFF7FDFDBDE8AC
:10598000F08170B506460C46022500BF00BF00BF7F
:10599000A5480088401CA4490880002505E030780F
:1059A000A2494855761C681CC5B2A542F7DB2246C1
:1059B0009E490020FFF761FE40F20B10FFF7DCFD6F
:1059C00070BD10B540F20910FFF7D6FD41F2FA1094
:1059D000FFF7D2FD44F25000FFF7CEFD44F2011074
:1059E000FFF7CAFD10BD10B540F20F10FFF7C4FD60
:1059F00010BD10B540218E48FBF7BBFA642402E0CD
:105A000000BF601EC4B2002CFAD140218848FBF7C9
:105A1000AEFAFA2402E000BF601EC4B2002CFAD134
:105A2000FFF73FFEFA2402E000BF601EC4B2002C64
:105A3000FAD100BF06E07B4931F81400FFF79CFD66
:105A4000601CC4B2032CF6DB7A490888FFF794FD8A
:105A5000002406E0784931F81400FFF78DFD601C42
:105A6000C4B2102CF6DBFFF716FE10BD10B540F2E5
:105A70000110FFF781FD40F20D10FFF77DFD10BD15
:105A800010B5FFF7B6FF002406E06C4931F81400AA
:105A9000FFF772FD601CC4B2022CF6DB002406E0A6
:105AA000674931F81400FFF767FD601CC4B2042C8D
:105AB000F6DB40F20D10FFF75FFD10BD00207047D0
:105AC00010B5FFF796FF002406E05C4931F814009A
:105AD000FFF752FD601CC4B2022CF6DB002406E086
