:020000040800F2
:1020000000A70020852100089D660008B36600082F
:10201000D7660008EF6600080767000800000000A8
:102020000000000000000000000000001F67000822
:102030002F670008000000003F6700084F67000896
:102040009F2100089F2100089F210008695B00086C
:102050009F2100089F2100089F2100080B7900089C
:102060009F2100089F2100089F2100089F21000850
:102070009F2100089F2100089F2100089F21000840
:102080009F2100089F2100089F2100089F21000830
:102090009F2100089F2100089F210008DF5B0008A6
:1020A0009F2100089F2100089F2100089F21000810
:1020B0005F6700089F210008C3BE00089F21000839
:1020C0009F2100089F2100089F2100089F210008F0
:1020D0009F2100089F2100085DB300089F21000890
:1020E000157900089F2100089F2100089F21000802
:1020F0009F2100089F2100089F2100089F210008C0
:102100009F2100089F2100089F2100089F210008AF
:102110009F2100089F2100089F2100089F2100089F
:102120009F2100089F2100089F2100089F2100088F
:10213000DFF80CD00DF050FF004800473583000851
:1021400000A70020EFF30980704780F309887047EB
:10215000EFF30880704780F30888704740BA7047F3
:10216000C0BA7047EFF3108072B6704780F31088E2
:1021700070477047014802490160FEE70CED00E03E
:102180000000FA050648804706480047FEE7FEE7DC
:10219000FEE7FEE7FEE7FEE7FEE7FEE7FEE7FEE717
:1021A000B9220008312100080CB5002001900090F0
:1021B0009248006840F480309049086000BF8F4822
:1021C000006800F4003000900198401C01900098D5
:1021D00018B90198B0F5A06FF1D18848006800F4F3
:1021E000003010B10120009001E000200090009824
:1021F00001285CD18248006840F0100080490860E6
:102200000846006820F0030008600846006840F0B7
:10221000020008607948406878494860084640688C
:1022200048600846406840F4806048600846C06ADC
:10223000744908407149C8620846C06A7249084337
:102240006E49C8620846006840F08060086000BFC0
:102250006A48006800F000600028F9D067484068CC
:1022600020F47C10654948600846406840F4E81056
:1022700048600846006840F08070086000BF5F4812
:10228000006800F000700028F9D05C48406820F039
:1022900003005A4948600846406840F00200486020
:1022A00000BF5648406800F00C000828F9D10CBD6A
:1022B00010B5FFF779FF10BD10B55048006840F029
:1022C00001004E49086008464068504908404B49A3
:1022D0004860084600684E4908404849086008467A
:1022E000006820F4802008600846406820F4FE0062
:1022F00048600846006820F0A05008604FF47F0056
:1023000088600020C862FFF7D3FF4FF000604149AA
:10231000086010BDF0B50021002000230024002239
:1023200000250026354F7F6807F00C0121B10429F4
:1023300008D008294BD10BE0374FDFF8E0C0CCF8CC
:1023400000704AE0344FDFF8D4C0CCF8007044E0AD
:102350002A4F7F6807F47010284F7F6807F4803396
:10236000800C0D2801D0801C00E0062033B92C4FD2
:102370004743DFF8A8C0CCF8007027E01F4FFF6A82
:1023800007F480341D4FFF6A07F00F077A1C44B929
:10239000214FB7FBF2F74743DFF880C0CCF800705D
:1023A00014E0164FFF6AC7F303177D1C134FFF6A33
:1023B000C7F30327BE1C184FB7FBF5F77743B7FBEE
:1023C000F2F74743DFF854C0CCF8007005E0124F35
:1023D000DFF848C0CCF8007000BF00BF074F7F682F
:1023E000C7F30317DFF83CC01CF807100B4F3F681A
:1023F000CF40DFF828C0CCF80070F0BD00100240DC
:102400000020024000F0FEFF140801000000FFF071
:10241000FFFFF6FE08ED00E000127A000000002049
:1024200000093D000400002001684FF6FE721140D3
:1024300001600021016041608160C1608D49884276
:1024400008D18C490839496841F00F01894A083A96
:1024500051608AE087491431884208D1854908399A
:10246000496841F0F001834A083A51607DE08149B2
:102470002831884208D17F490839496841F47061A0
:102480007C4A083A516070E07A493C31884208D170
:1024900078490839496841F47041764A083A5160F0
:1024A00063E074495031884208D17249083949685B
:1024B00041F470216F4A083A516056E06D49643129
:1024C000884208D16B490839496841F47001694A6A
:1024D000083A516049E067497831884208D1654936
:1024E0000839496841F07061624A083A51603CE03D
:1024F0006149884206D1011F096841F00F01021F9E
:10250000116032E05C491431884208D15A49091FF0
:10251000096841F0F001584A121F116025E0564940
:102520002831884208D15449091F096841F4706173
:10253000514A121F116018E04F493C31884208D1BE
:102540004D49091F096841F470414B4A121F11603F
:102550000BE049495031884207D14749091F0968B2
:1025600041F47021444A121F1160704710B50022D7
:10257000026847F6F0739A430C6A8B6823430C6930
:1025800023434C6923438C692343CC6923434C6A1E
:1025900023438C6A23431A430260CB6843600B6871
:1025A00083604B68C36010BD0021016041608160A1
:1025B000C160016141618161C16101624162816209
:1025C000704721B1026842F00102026004E0026833
:1025D0004FF6FE731A40026070471AB103680B434E
:1025E000036002E003688B430360704741607047FB
:1025F0000146486880B2704701460020002201F081
:1026000080531BB11C4B083B1A6802E0194B083B76
:102610001A6802EA01030BB1012000E000207047B4
:1026200000F0805119B11449091F086002E01149F6
:1026300008394860704701460020002201F08053AD
:102640001BB10D4B083B1A6802E00A4B083B1A68A5
:1026500002EA01030BB1012000E00020704700F006
:10266000805119B10449091F086002E00149083985
:1026700048607047080002400804024000204449B6
:102680000860091D0860091D0860091D08604148AF
:102690003F4914310860704700213D498279002A82
:1026A0003AD00A46126803689A430B461A600A1D1C
:1026B000126803689A430B1D1A60027911440A6874
:1026C00003681A430A60324A0832126803689A4360
:1026D0002F4B08331A601A1D126803689A432C4B5B
:1026E0000C331A604279102A0ED11A1F126803683F
:1026F0001A43274B08331A601A1D126803681A43DD
:10270000234B0C331A600DE02149427911440A68C9
:1027100003681A430A6005E0027911440A680368F5
:102720009A430A6070470021016001710C214171D8
:102730000021817170471649103109680143144A1C
:1027400010321160704701460020114A143212689D
:102750000A400AB1012000E0002070470C49143102
:1027600008607047014600200022094B1B6803EAFD
:102770000102074B14331B680B4013B10AB101204F
:1027800000E00020704702491431086070470000E3
:1027900000040140FFFF0F0001460020FE4A1068C0
:1027A00000F03800084310607047FB49096821F0C9
:1027B0000801F94A11601146096801431160704728
:1027C000F549096821F01001F34A116011460968C2
:1027D000014311607047F148EF494860F048486094
:1027E0007047EE48EC494860ED4848607047EA4859
:1027F000006940F08000E84908617047E6480069D8
:1028000040F08000E449086170470420E249C9684B
:1028100001F0010109B101200EE0DF49C96801F0B2
:10282000040109B1022007E0DB49C96801F0100189
:1028300009B1032000E00420704700B502460423DC
:10284000FFF7E3FF034603E0FFF7DFFF0346521EF7
:10285000012B01D1002AF7D102B90523184600BD8A
:1028600030B5044604254FF43020FFF7E6FF054657
:10287000042D17D1C848006940F00200C64908611C
:1028800008464461006940F0400008614FF4302080
:10289000FFF7D3FF0546C048006941F6FD710840C7
:1028A000BD490861284630BD10B504244FF43020DE
:1028B000FFF7C3FF0446042C16D1B748006940F067
:1028C0000400B54908610846006940F0400008610D
:1028D0004FF43020FFF7B1FF0446AF48006941F6DE
:1028E000FB710840AC490861204610BD00B50246A6
:1028F0000423FFF78AFF034603E0FFF786FF034642
:10290000521E012B01D1002AF7D102B90523184626
:1029100000BD10B504244FF43020FFF7E7FF044654
:10292000042C16D19C48006940F004009A490861C3
:102930000846006940F0400008614FF43020FFF77E
:10294000D5FF04469448006941F6FB71084092495E
:102950000861204610BD00208F49C96901F00201BD
:1029600009B1012000E00020704730B5A5250424FE
:10297000FFF7F1FF00B100254FF43020FFF75DFFB6
:102980000446042C3AD1854883498860844888608D
:102990000846006940F0200008610846006940F0E0
:1029A000400008614FF43020FFF747FF0446042C35
:1029B0001BD17948006941F6DF710840764908610A
:1029C0000846006940F01000086176480580E00282
:1029D000FFF733FF0446052C10D06F48006941F61D
:1029E000EF7108406C49086108E0052C06D06A4880
:1029F000006941F6EF71084067490861204630BD23
:102A000078B506460C46042500200090E802FFF742
:102A100014FF0546042D24D15F48006940F00100F1
:102A20005D4908613480E802FFF707FF0546042D81
:102A300010D1B01C0090200C00990880E802FFF72C
:102A4000FCFE05465448006941F6FE7108405249B3
:102A5000086106E05048006941F6FE7108404E49A1
:102A60000861284678BD70B504460D460426F0027C
:102A7000FFF7E3FE0646042E11D14748006940F0F7
:102A80000100454908612580F002FFF7D6FE0646A1
:102A90004148006941F6FE7108403F4908613046EF
:102AA00070BD70B505460E460424E002FFF7C5FE72
:102AB0000446042C17D13948374988603848886063
:102AC0000846006940F0100008612E80E002FFF720
:102AD000B4FE0446052C06D02F48006941F6EF717C
:102AE00008402D490861204670BD2DE9F043044699
:102AF0004FF6FF763746B046B1460425E443E6B2CA
:102B0000C4F30727C4F307484FEA1469E802FFF744
:102B100094FE0546042D49D120481F49886020486D
:102B200088600846006940F010000861FF2E06D05A
:102B30001C4808300680E802FFF77FFE0546042D9A
:102B400008D1FF2F06D017480A300780E802FFF7A8
:102B500074FE0546042D0AD1B8F1FF0F07D01148C5
:102B60000C30A0F80080E802FFF767FE0546042D50
:102B70000AD1B9F1FF0F07D00A480E30A0F8009033
:102B8000E802FFF75AFE0546052D0FD002480069FE
:102B900041F6EF71084007E000200240230167453D
:102BA000AB89EFCD00F8FF1F664908612846BDE8F4
:102BB000F08330B5054604244FF43020FFF73DFE86
:102BC0000446042C41D160485E4988605F488860B3
:102BD0000846006940F0200008610846006940F09E
:102BE000400008614FF43020FFF727FE0446042C14
:102BF00022D15448006941F6DF710840514908610B
:102C00000846006940F0100008611DB100205049DD
:102C1000088002E0A5204E4908804FF43020FFF7DD
:102C20000CFE0446052C10D04648006941F6EF71B1
:102C300008404449086108E0052C06D04148006975
:102C400041F6DF7108403F490861204630BDF0B5CC
:102C500005460E46174604243B483A4988603B48DF
:102C60008860E002FFF7E9FD0446042C19D13548DD
:102C7000006940F010003349086147F0F800304324
:102C800028433349891C0880E002FFF7D6FD04463B
:102C9000052C06D02B48006941F6EF710840294900
:102CA00008612046F0BD2748C06980087047254864
:102CB000006A704700202349096801F0200109B12A
:102CC000012000E00020704729B11E4A126902432A
:102CD0001C4B1A6104E01B4A12698243194B1A61AA
:102CE000704701460020012908D1164AD26902F036
:102CF00001020AB1012008E0002006E0114AD26872
:102D00000A400AB1012000E0002070470D49C86068
:102D1000704704200B49C96801F0010109B1012085
:102D20000EE00849C96801F0040109B1022007E07A
:102D30000449C96801F0100109B1032000E0042032
:102D4000704700000020024023016745AB89EFCDAA
:102D500000F8FF1F10B50446CC48844208D1012179
:102D6000042000F007FC0021042000F003FC46E0F2
:102D7000C748844208D10121082000F0FBFB002154
:102D8000082000F0F7FB3AE0C248844208D1012154
:102D9000102000F0EFFB0021102000F0EBFB2EE0F4
:102DA000BD48844208D10121202000F0E3FB00212E
:102DB000202000F0DFFB22E0B848844208D1012146
:102DC000402000F0D7FB0021402000F0D3FB16E0AC
:102DD000B348844208D10121802000F0CBFB0021C0
:102DE000802000F0C7FB0AE0AE48844207D10121F1
:102DF000801500F0BFFB0021A01500F0BBFB10BD4B
:102E000010B50121084600F0B5FB0021012000F0BB
:102E1000B1FB10BD2DE9F04102460025002600203F
:102E200000230024002791F803C00CF00F0591F84F
:102E300003C00CF0100CBCF1000F03D091F802C0DD
:102E40004CEA050591F800C0BCF1000F31D01468C0
:102E500000202BE04FF0010C0CFA00F3B1F800C099
:102E60000CEA03069E4220D183004FF00F0C0CFAAF
:102E700003F7BC4305FA03FC4CEA040491F803C0D1
:102E8000BCF1280F06D14FF0010C0CFA00FCC2F87F
:102E900014C00AE091F803C0BCF1480F05D14FF00F
:102EA000010C0CFA00FCC2F810C0401C0828D1D359
:102EB0001460B1F800C0BCF1FF0F34DD546800208D
:102EC0002EE000F1080C4FF0010808FA0CF3B1F8FD
:102ED00000C00CEA03069E4221D183004FF00F0C84
:102EE0000CFA03F7BC4305FA03FC4CEA040491F81E
:102EF00003C0BCF1280F05D100F1080C08FA0CF84A
:102F0000C2F8148091F803C0BCF1480F07D100F15A
:102F1000080C4FF0010808FA0CF8C2F81080401CA9
:102F20000828CED35460BDE8F0814FF6FF710180D0
:102F3000022181700421C17070470246002093680D
:102F40000B400BB1012000E000207047014688686B
:102F500080B2704702460020D3680B400BB10120BD
:102F600000E0002070470146C86880B270470161E8
:102F70007047416170470AB1016100E041617047EB
:102F8000C16070474FF480320A438261816182617F
:102F900082698269704702460020434B18684FF6E9
:102FA0008073184040EA021008433F4B1860704796
:102FB0003E49C8617047F0B50A460023002400214D
:102FC000002500F00046B6F1004F02D1364EF169FF
:102FD00001E0354E7168C0F3034583B200F440163A
:102FE000B6F5401F08D121F070612F4E766826F0AB
:102FF00070662D4F7E6012E000F48016B6F5801FDB
:1030000006D1032606FA05F4A14341F0706106E0FB
:10301000460D360103FA06F6B14341F0706122B164
:10302000460D360103FA06F6314300F00046B6F1CC
:10303000004F02D11C4EF16101E01B4E7160F0BDEA
:1030400030B500228B071C0F0F2303FA04F2164B36
:1030500008338C1053F824309343134C08348D10EC
:1030600044F8253023468C1053F824308C07240F65
:1030700000FA04F423430C4C08348D1044F8253036
:1030800030BD0A49DC31086070470000000801408B
:10309000000C0140001001400014014000180140E4
:1030A000001C0140002001400000014000002042BF
:1030B0000E49086070470D49486070470B498860A9
:1030C00070474AF6AA200949086070474CF6CC4080
:1030D00006490860704701460020044AD2680A4049
:1030E0000AB1012000E000207047000000300040DD
:1030F000FB48006840F00100F94908600846406854
:10310000F8490840F649486008460068F649084012
:10311000F34908600846006820F4802008600846EB
:10312000406820F4FE0048600846006820F0A05087
:1031300008604FF47F0088600020C8627047E8494B
:10314000096821F48031E64A11601146096821F4CA
:1031500080211160B0F5803F03D0B0F5802F0ED1F3
:1031600006E0DF49096841F48031DD4A116007E07B
:10317000DB49096841F4A021D94A116000E000BF91
:1031800000BF704710B501460022002300204A11FD
:10319000012A02D1D24C236806E0022A02D1D04C87
:1031A000236A01E0CE4C636A01F01F0201249440BF
:1031B0001C400CB1012000E0002010BD38B50020FB
:1031C00000900024002500BF3120FFF7DBFF0546FB
:1031D0000098401C00900098B0F5A06F01D0002D21
:1031E000F2D03120FFF7CEFF08B1012400E0002427
:1031F000204638BD01460020B94A106820F0F8008A
:1032000040EAC10010607047B84908607047024644
:103210000020B34B586820F4741042EA01031843AD
:10322000AF4B58607047B1490866704702460020AE
:10323000AB4BD86AAE4B184042EA01031843A84B87
:10324000D862704701460020A54AD06A20F0F000FD
:103250000843D062704701460020A14AD06A20F49A
:1032600070600843D0627047A04988667047014685
:1032700000209B4AD06A20F470400843D062704717
:103280009A490867704701460020954A506820F027
:1032900003000843506070479148406800F00C00FC
:1032A0007047014600208E4A506820F0F000084325
:1032B0005060704701460020894A506820F4E06061
:1032C00008435060704701460020854A506820F44A
:1032D000605040EAC1005060704729B1804A527A7C
:1032E00002437F4B5A7204E07D4A527A82437C4B00
:1032F0005A7270477D49D8310860704701460020F6
:10330000774A506820F4404008435060704779493C
:10331000086070477749091D086070470021704AAE
:10332000203211706E4A82F82010012802D0042841
:103330000AD104E001216A4A2032117005E005211A
:10334000674A2032117000E000BF00BF70476A4931
:10335000086070476249096A0143614A1162704717
:1033600065494439086070472DE9F0410021002289
:10337000002500230026002400278C46DFF860810A
:10338000D8F8048008F00C0121B1042907D00829DD
:1033900059D109E0DFF86481C0F8008058E0DFF817
:1033A0005C81C0F8008053E0DFF83481D8F80480F5
:1033B00008F47012DFF82881D8F8048008F480350A
:1033C000920C0D2A01D0921C00E0062235B9DFF8DC
:1033D000308102FB08F8C0F8008033E0DFF800819C
:1033E000D8F82C8008F48036DFF8F480D8F82C80E8
:1033F00008F00F0808F1010446B9DFF80081B8FBB6
:10340000F4F808FB02F8C0F800801BE0DFF8D08079
:10341000D8F82C80C8F3031808F10107DFF8C08042
:10342000D8F82C80C8F3032808F1020CDFF8CC8010
:10343000B8FBF7F808FB0CF8B8FBF4F808FB02F847
:10344000C0F8008004E0DFF8B480C0F8008000BF5E
:1034500000BFDFF88C80D8F8048008F0F00109097B
:10346000DFF8A08018F80130D0F8008028FA03F8BF
:10347000C0F80480DFF86880D8F8048008F4E061C0
:10348000090ADFF8808018F80130D0F8048028FAA3
:1034900003F8C0F80880DFF84880D8F8048008F402
:1034A0006051C90ADFF85C8018F80130D0F8048058
:1034B00028FA03F8C0F80C80DFF82480D8F80480DC
:1034C00008F44041890BDFF8408018F80130D0F84B
:1034D0000C80B8FBF3F8C0F81080BDE8F081000064
:1034E000001002400000FFF0FFFFF6FE0000424225
:1034F000F0FFFEFFC40542428004424200127A00FF
:1035000000093D00140000202400002029B1354AA4
:1035100052690243334B5A6104E0324A5269824392
:10352000304B5A61704729B12E4A926902432D4BA4
:103530009A6104E02B4A926982432A4B9A61704750
:1035400029B1284AD2690243264BDA6104E0254AB0
:10355000D2698243234BDA61704729B1214A926ACA
:103560000243204B9A6204E01E4A926A82431D4B3A
:103570009A62704729B11B4AD2680243194BDA603C
:1035800004E0184AD2688243164BDA60704729B1CA
:10359000144A12690243134B1A6104E0114A12697A
:1035A0008243104B1A6170470F49086070470F49FA
:1035B000C86470470B49C87170470A48406A40F0B8
:1035C000807008494862704701460020054A9268A9
:1035D0000A400AB1012000E00020704701498872CA
:1035E0007047000000100240400442420000424286
:1035F00029B1504A128802434E4B1A8004E04D4ACA
:10360000128882434B4B1A8070474A48001D00883D
:1036100040F010004749091D088070474548001DCB
:1036200000884FF6EF7108404249091D0880704735
:10363000002140481C300188001F008841EA0040FA
:10364000704700B50246FFF7E0FF100C394918310A
:103650000880091D0A80FFF7E1FF00BD00B50246A2
:10366000FFF7D3FFC2F30340324908310880091D38
:103670000A80FFF7D3FF00BD00B50246FFF7C5FF84
:10368000100C2C4920310880091D0A80FFF7C6FF65
:1036900000BD00202749103109880907080B25497A
:1036A000143109880843704700BF2248001D008874
:1036B00000F020000028F8D070471E48001D008848
:1036C0004FF6F77108401B49091D088000BF1948D3
:1036D000001D008800F008000028F8D0704701465F
:1036E0000020144A121D12880A400AB1012000E08D
:1036F000002070470F49091D098881430D4A121D9A
:1037000011807047014600200A4A121D12880A40A3
:10371000D0B2084A12880A4012B108B1012000E074
:10372000002070470349091D09888143014A121D81
:10373000118070470028004010B50446CE488442EE
:1037400008D101218014FFF715FF0021A014FFF715
:1037500011FF16E0C948844208D101210014FFF787
:1037600016FF00212014FFF712FF0AE0C44884422C
:1037700007D10121C013FFF70AFF0021E013FFF773
:1037800006FF10BD10B50022028802F441520B88DA
:103790004C8823438C882343CC8823430C892343C0
:1037A0004C8923438C892343CC8923431A430280C9
:1037B000838B4FF2FF74234083830B8A038210BDF7
:1037C0002DE9F04F85B006460C464FF0000A02275F
:1037D0004FF000084FF0010B0025A946B08B4FF2C7
:1037E00040010840B08302203084B6F81CA0A068D5
:1037F000022801D100BF59E0A08810B94FF0010B99
:1038000001E04FF0020B9D48864202D14FF4003593
:1038100001E04FF480259B48C06A2840C8B1994810
:10382000C06AC0F30335052D03D90F2D01D2AD1C9D
:1038300002E00F2D00D114259248C06AC0F3031096
:1038400000F101099048B0FBF9F068434FEA4009E4
:1038500004E06846FFF788FDDDF80090E088B0F5E9
:10386000007F0AD14FEA192000EB80004000A168D8
:10387000B0FBF1F0401D85B20BE04FEA4B10B9FBF5
:10388000F0F000EB80004000A168B0FBF1F0401DBB
:1038900085B20A20B5FBF0F505F00108A5EB08009C
:1038A000C0F34F074FF6FF7000EA0828022F01DB34
:1038B000FF2F02DD02274FF00008E08840EA0800F1
:1038C00038433084A088A18908436188084321884F
:1038D000084340F4006040EA0A0AA6F81CA005B0BC
:1038E000BDE8F08F0021018041808180C18001818D
:1038F00041818181C18107210182704700210180BE
:1039000041808180C18002218160002181817047D6
:1039100021B1028842F04002028004E002884FF6A2
:10392000BF731A400280704721B1828B42F48062DB
:10393000828304E0828B4FF6FF331A408283704704
:1039400030B5002400230C110125A540ABB21AB1FB
:1039500085881D43858002E085889D43858030BD34
:103960001AB183880B43838002E083888B43838072
:103970007047818170470146888970474FF6FF6222
:10398000914204D0028842F48072028004E00288EE
:103990004FF6FF631A400280704721B1828842F0DF
:1039A0000402828004E082884FF6FB731A40828012
:1039B000704702884FF2FF731A40028002880A4360
:1039C00002807047018841F480510180704721B125
:1039D000028842F40052028004E002884DF6FF7330
:1039E0001A400280704702460020012901D0108B46
:1039F00000E0908A70470146088A7047B1F5804F11
:103A000004D1028842F48042028004E002884BF62E
:103A1000FF731A40028070470246002013890B4052
:103A20000BB1012000E000207047CA4302817047BB
:103A3000F0B50246002000240023002501F00F0706
:103A40000126BE40B4B20B1101269E40B3B2968847
:103A500006EA03051689264016B10DB1012000E0E3
:103A60000020F0BD10B5002201F00F040123A34097
:103A70009AB2D343038110BD0030014000380040AA
:103A8000003C00400010024000127A0010B50446CD
:103A9000FE48844208D10121C014FFF76BFD0021CC
:103AA000E014FFF767FDC4E0B4F1804F08D10121B5
:103AB0000846FFF76CFD00210120FFF768FDB8E024
:103AC000F348844208D101210220FFF760FD002164
:103AD0000220FFF75CFDACE0EE48844208D10121F2
:103AE0000420FFF754FD00210420FFF750FDA0E063
:103AF000E948844208D101210820FFF748FD002150
:103B00000820FFF744FD94E0E448844208D10121F5
:103B10001020FFF73CFD00211020FFF738FD88E062
:103B2000DF48844208D101212020FFF730FD002129
:103B30002020FFF72CFD7CE0DA48844208D10121E7
:103B40004014FFF717FD00216014FFF713FD70E02C
:103B5000D548844209D10121C804FFF70BFD00219B
:103B60004FF40020FFF706FD63E0D048844209D1FE
:103B700001210805FFF7FEFC00214FF48010FFF73C
:103B8000F9FC56E0CA48844209D101214805FFF7F3
:103B9000F1FC00214FF40010FFF7ECFC49E0C548B0
:103BA000844208D101214020FFF7F1FC0021402090
:103BB000FFF7EDFC3DE0C048844208D101218020A0
:103BC000FFF7E5FC00218020FFF7E1FC31E0BB4876
:103BD000844208D101218015FFF7D9FC0021A015EE
:103BE000FFF7D5FC25E0B648844209D1012108043D
:103BF000FFF7C0FC00214FF48030FFF7BBFC18E05A
:103C0000B048844209D101214804FFF7B3FC0021E8
:103C10004FF40030FFF7AEFC0BE0AB48844208D114
:103C200001218804FFF7A6FC00214FF48020FFF754
:103C3000A1FC10BD00220288944B98420ED0994BF3
:103C400098420BD0B0F1804F08D0914B984205D0EC
:103C5000904B984202D0904B984204D14FF68F730C
:103C60001A404B881A438D4B984207D08C4B984290
:103C700004D04FF6FF431A40CB881A4302808B884A
:103C800083850B880385814B98420BD0854B9842E6
:103C900008D08B4B984205D08A4B984202D08A4B71
:103CA000984201D10B7A038601238382704770B555
:103CB000002400220023058C4FF6FE763540058453
:103CC000028C8388048B4FF68F752C40B51E2C40D8
:103CD0000D882C43751E2A400D892A434D882A439E
:103CE0006A4DA8420BD06F4DA84208D0744DA8422F
:103CF00005D0744DA84202D0734DA84213D14FF69F
:103D0000F7752A404D892A434FF6FB752A408D8866
:103D10002A434FF6FF652B404FF6FF552B408D8908
:103D20002B43CD892B4383800483CD8885860284F1
:103D300070BD70B5002400220023058C4FF6EF768D
:103D400035400584028C8388048B48F6FF752C402F
:103D50004FF6FF452C400D884FF6FF7606EA052505
:103D60002C434FF6DF752A400D8906EA05152A43D4
:103D70004D8806EA05152A43444DA84202D0494D14
:103D8000A8421DD14FF67F752A404D894FF6FF7628
:103D900006EA05152A434FF6BF752A408D8806EAC4
:103DA00005152A434FF6FF352B404FF2FF752B4088
:103DB0008D8906EA85052B43CD8906EA85052B43C7
:103DC00083800483CD880587028470BD70B500248C
:103DD00000220023058C4FF6FF6635400584028CD7
:103DE0008388848B4FF68F752C404FF6FC752C40E2
:103DF0000D882C434FF6FF552A400D894FF6FF766C
:103E000006EA05252A434D8806EA05252A431F4D63
:103E1000A84202D0234DA8421DD14FF2FF752A407F
:103E20004D894FF6FF7606EA05252A434FF6FF3502
:103E30002A408D8806EA05252A434EF6FF752B4059
:103E40004DF6FF752B408D8906EA05152B43CD896C
:103E500006EA05152B4383808483CD8885870284F9
:103E600070BD70B5002200230024058C4EF6FF764D
:103E700035400584038C8488828B48F6FF752A4080
:103E80004FF6FF452A400D8820E00000002C01403D
:103E90000004004000080040000C004000100040FA
:103EA0000014004000340140004C0140005001402B
:103EB0000054014000180040001C00400020004059
:103EC0000040014000440140004801404FF6FF76A9
:103ED00006EA05252A434DF6FF752B400D8906EAB3
:103EE00005352B434D8806EA05352B43FA4DA8428C
:103EF00002D0FA4DA84208D14BF6FF752C408D89AF
:103F00004FF6FF7606EA85152C4384808283CD88A0
:103F1000A0F84050038470BD828B4FF2FF331A40EB
:103F20008283828B4FF6FF7303EA01231A43828355
:103F30007047F0B50C461546002200210026078C7C
:103F40004EF6FF7C07EA0C070784828B018C4FF644
:103F5000FF7707EA043640F6FF473A404FF6FF770F
:103F600007EA05273A434FF6FF7707EA03373A4354
:103F7000D94FB8420ED0D94FB8420BD0B0F1804FD4
:103F800008D0D74FB84205D0D64FB84202D0D64F4E
:103F9000B84206D14DF6FF77394046F48057394391
:103FA00005E047F6FF57394044F480573943828390
:103FB0000184F0BD828B4FF6F3731A408283828BAB
:103FC0000A4382837047F0B50C4615460022002153
:103FD0000026078C4FF6FF6C07EA0C070784828BDC
:103FE000018C4FF6FF7707EA04264FF60C773A402C
:103FF0004FF6FF7707EA03172F433A43B64FB8420D
:104000000ED0B64FB8420BD0B0F1804F08D0B44FAD
:10401000B84205D0B34FB84202D0B34FB84206D130
:104020004FF6FF57394046F48077394305E04FF2A9
:10403000FF57394044F48077394382830184F0BDCF
:10404000028B4FF2FF331A400283028B4FF6FF734D
:1040500003EA01231A4302837047F0B50C46154664
:10406000002200210026078C4FF6EF7C07EA0C07A0
:104070000784028B018C4FF6FF7707EA041640F69F
:10408000FF473A404FF6FF7707EA03373A434FF6C8
:10409000FF7707EA05273A438F4FB8420ED08F4F7C
:1040A000B8420BD0B0F1804F08D08D4FB84205D048
:1040B0008C4FB84202D08C4FB84206D14FF6DF7712
:1040C000394046F01007394305E04FF65F77394035
:1040D00044F01007394302830184F0BD028B4FF690
:1040E000F3731A400283028B0A4302837047F0B5D0
:1040F0000C46154600220021068C4FF6FE773E4006
:104100000684028B018C4FF60C7632407E1C06EA48
:1041100003162E433243704EB0420ED06F4EB04263
:104120000BD0B0F1804F08D06D4EB04205D06D4E2F
:10413000B04202D06C4EB04206D14FF6FD7631400F
:1041400044F00106314305E04FF6F576314044F086
:104150000106314302830184F0BD70B505460C466B
:104160005D4885420ED05D4885420BD0B5F1804F49
:1041700008D05B48854205D05A48854202D05A484B
:10418000854200D100E000BF208850B92389A28871
:1041900061882846FFF7ABFFE1882846FFF79EFFBE
:1041A00025E0208804280AD12389A288618828462E
:1041B000FFF753FFE1882846FFF742FF17E020880A
:1041C00008280AD12389A28861882846FFF7FBFEC8
:1041D000E1882846FFF7EEFE09E02389A28861887E
:1041E0002846FFF7A6FEE1882846FFF795FE70BD3A
:1041F0002DE9F04105460C4600260127608808B9E4
:10420000022600E00026A088012801D1022700E054
:1042100001272088A0B92389A28861882846FFF752
:1042200066FFE1882846FFF759FF23893A46314661
:104230002846FFF712FFE1882846FFF701FF13E049
:104240002389A28861882846FFF707FFE18828466E
:10425000FFF7F6FE23893A4631462846FFF747FF27
:10426000E1882846FFF73AFFBDE8F0810A884B88CD
:104270001A438B881A43CB881A430B891A434B89FC
:104280001A438B891A43A0F8442070474FF6FF71F8
:10429000818000210180C18041800172704700212E
:1042A000018041808180C180018141818181C18102
:1042B0007047002101804180012181800021C1805F
:1042C000018170470021018041808180C18001818E
:1042D0004181818170470000002C01400034014081
:1042E0000004004000080040000C004021B102889A
:1042F00042F00102028004E002884FF6FE731A4089
:104300000280704731B1B0F8442042F40042A0F876
:10431000442005E0B0F84420C2F30E02A0F8442087
:1043200070471AB183890B43838102E083898B43F1
:10433000838170478182704741EA0203A0F84830C8
:1043400070471AB183890B43838102E083898B43D1
:104350008381704701894FF6F872114001817047DF
:104360000A46002101894FF68F73194011430181DC
:10437000704730B504460D4629462046FFF7F0FF4A
:10438000208940F00700208130BD2DE9F04104462E
:104390000D4616461F46602D06D13B46012231468A
:1043A0002046FFF75AFE05E03B46012231462046F3
:1043B000FFF79DFE29462046FFF7D2FF208940F0F7
:1043C00007002081BDE8F08130B50C46002101894D
:1043D000C9B24FF6FF7505EA032515432543294366
:1043E000018130BD2DE9F04105460E46174698463D
:1043F000002443463A4631462846FFF7E5FF2C891C
:104400004FF6F870044044F007044FF68F700440F4
:1044100044F070042C81BDE8F081F0B504460D46EF
:1044200016461F463B46324629462046FFF7CCFF3C
:10443000208940F480402081F0BD01858282704750
:104440000A46002101884FF68F73194011430180FD
:104450007047F0B50C4615461E4600210022002389
:104460000189028B038C4FF6F877394021434FF6D0
:10447000FC473A4040F201173A434FF6DD773B40A4
:104480004FF6FF7707EA06172F433B43018102836C
:104490000384F0BD0A460021018B4FF68F7319404B
:1044A0001143018370470A460021018B48F6FF73D0
:1044B00019404FF6FF7303EA022319430183704743
:1044C0000A460021818B4FF68F7319401143818377
:1044D00070470A460021818B48F6FF7319404FF65A
:1044E000FF7303EA022319438183704721B10288D5
:1044F00042F08002028004E002884FF67F731A4087
:104500000280704721B1828842F00402828004E078
:1045100082884FF6FB731A408280704721B18288EF
:1045200042F00802828004E082884FF6F7731A4056
:104530008280704721B1828842F00102828004E0CB
:1045400082884FF6FE731A40828070470A46002127
:10455000018B4FF6F77319401143018370470A46E8
:104560000021018B4FF2FF7319404FF6FF7303EAEE
:1045700002231943018370470A460021818B4FF6BD
:10458000F77319401143818370470A460021818BDC
:104590004FF2FF7319404FF6FF7303EA02231943EA
:1045A000818370470A460021018B4FF6FB73194047
:1045B0001143018370470A460021018B4FF6FF33F8
:1045C00019404FF6FF7303EA022319430183704732
:1045D0000A460021818B4FF6FB73194011438183FA
:1045E00070470A460021818B4FF6FF3319404FF682
:1045F000FF7303EA02231943818370470A460021AF
:10460000018B4FF67F7319401143018370470A46AF
:104610000021018BC1F30E014FF6FF7303EA022361
:104620001943018370470A460021818B4FF67F733F
:1046300019401143818370470A460021818BC1F3E1
:104640000E014FF6FF7303EA02231943818370477B
:104650000A460021018C4FF6FD7319401143018475
:1046600070470A460021018C4FF6F7731940114339
:10467000018470470A460021018C4FF6DF73194010
:104680004FF6FF7303EA02131943018470470A4689
:104690000021018C4FF67F7319404FF6FF7303EA38
:1046A00002131943018470470A460021018C4FF61A
:1046B000FF5319404FF6FF7303EA022319430184A5
:1046C00070470A460021018C4FF2FF7319404FF6E4
:1046D000FF7303EA02231943018470470A4600214D
:1046E000018C4DF6FF7319404FF6FF7303EA023356
:1046F00019430184704730B5002301248C40A3B2D4
:10470000048C9C430484048C02FA01F5ADB22C4362
:10471000048430BD30B5002304248C40A3B2048C43
:104720009C430484048C02FA01F5ADB22C4304844A
:1047300030BD70B50346002000241846183001250E
:104740008D40ACB21D8CA5431D8409B1082909D147
:1047500000EB6100056825F07005056005681543EC
:1047600005600EE00D1FC5F34E052844056825F4CD
:10477000E045056005684FF6FF7606EA02263543F8
:10478000056070BD21B1028842F00202028004E09F
:1047900002884FF6FD731A400280704721B10288EB
:1047A00042F00402028004E002884FF6FB731A40D4
:1047B0000280704721B1828842F08002828004E04A
:1047C00082884FF67F731A408280704702884FF6C6
:1047D000F7731A40028002880A4302807047828879
:1047E0004FF68F731A40828082880A438280704716
:1047F00002894FF6F8731A40028102890A43028146
:10480000704702894FF67F731A40028102890A437A
:104810000281704781847047818570478186704727
:104820000187704781877047A0F840107047028861
:104830004FF6FF431A40028002880A430280704705
:104840000146888E70470146088F70470146888F61
:1048500070470146B1F8400070470146888C7047A8
:104860000146088D704702460020138A0B400BB1A9
:10487000012000E000207047CA430282704730B533
:104880000246002000230024158A05EA01039589C9
:1048900005EA010413B10CB1012000E0002030BD95
:1048A000CA4302827047000010B50446FB488442A8
:1048B00009D101218803FEF75DFE00214FF48040FD
:1048C000FEF758FE32E0F648844209D1012148043F
:1048D000FEF75DFE00214FF40030FEF758FE25E0A4
:1048E000F048844209D101218804FEF750FE0021DE
:1048F0004FF48020FEF74BFE18E0EB48844209D1CC
:104900000121C804FEF743FE00214FF40020FEF70A
:104910003EFE0BE0E548844208D101210805FEF780
:1049200036FE00214FF48010FEF731FE10BD2DE958
:10493000F04786B005460E460024A24600BFA146B9
:104940000027B08900B100BF2F462C8A4CF6FF70BB
:104950000440F08804432C82AC894EF6F3100440E6
:10496000B08831890843718908430443AC81AC8A1B
:104970004FF6FF400440B0890443AC8201A8FEF723
:10498000F3FCC648874202D1DDF810A001E0DDF853
:104990000CA0A88900F4004040B10AEBCA0000EB6B
:1049A0000A1031684900B0FBF1F807E00AEBCA00D1
:1049B00000EB0A1031688900B0FBF1F86420B8FB05
:1049C000F0F004012009642101FB1089A88900F49A
:1049D000004040B1322000EBC900B0FBF1F000F024
:1049E0000700044308E0322000EB09106421B0FB0B
:1049F000F1F000F00F0004432C8106B0BDE8F08711
:104A00004FF41651016000218180C18001810C2189
:104A1000418100218181704710B502460020108A33
:104A20004FF2FF0318400B884C8823438C882343A4
:104A3000CC8823431843108210BD0021018041809F
:104A40008180C180704721B1828942F40052828105
:104A500004E082894DF6FF731A4082817047F0B5F9
:104A60000346002400260025002040F66A17B942BC
:104A700000D100BF1846C1F3421401F01F06012700
:104A800007FA06F5012C01D10C3004E0022C01D10B
:104A9000103000E014301AB107682F43076002E0BD
:104AA0000768AF430760F0BD1AB1838A0B43838266
:104AB00002E0838A8B4383827047028A4FF6F07349
:104AC0001A400282028A0A430282704782894FF2A8
:104AD000FF731A40828182890A438281704721B123
:104AE000828942F00202828104E082894FF6FD73DE
:104AF0001A4082817047028A4FF6DF731A400282A1
:104B0000028A0A430282704721B1028A42F480423B
:104B1000028204E0028A4BF6FF731A400282704759
:104B2000C1F308028280704701468888C0F30800FC
:104B30007047818941F0010181817047028BD2B2B7
:104B40000283028B42EA012202837047028B02F445
:104B50007F420283028B0A430283704721B1828A1B
:104B600042F02002828204E0828A4FF6DF731A400C
:104B70008282704721B1828A42F01002828204E070
:104B8000828A4FF6EF731A408282704721B1828A7F
:104B900042F00802828204E0828A4FF6F7731A40DC
:104BA0008282704721B1828942F40042828103E00F
:104BB0008289C2F30E028281704721B1828A42F457
:104BC0000062828204E0828A4FF2FF731A4082827E
:104BD0007047828A4FF6FB731A408282828A0A43A8
:104BE0008282704721B1828A42F00202828204E00E
:104BF000828A4FF6FD731A40828270470246002077
:104C0000B1F5007F00D100BF13880B400BB101202C
:104C100000E00020704701F40072B2F5007F00D17F
:104C200000BFCA430280704770B5024600240023CB
:104C30000025002040F66A16B14200D100BFC1F342
:104C4000421501F01F03012606FA03F3012D02D1DC
:104C50009689334006E0022D02D1168A334001E0E6
:104C6000968A33400C12012606FA04F41688344062
:104C700013B10CB1012000E0002070BD10B500227E
:104C8000002340F66A14A14200D100BF0A12012499
:104C90009440A3B2DC43048010BD00000038014002
:104CA0000044004000480040004C004000500040DC
:104CB00010B50121C802FEF76AFC00214FF4006024
:104CC000FEF765FC10BD0021194A126822F4C0717C
:104CD0000143174A1160704708B50021009114493B
:104CE000096821F07F01009100F07F01009A1143D3
:104CF00000910F4A0099116008BD01200D4908601C
:104D0000704700F07F010A4A121F1160704740F09F
:104D10008001074A121F116070470548001D006896
:104D2000C0B2704700200249091D086070470000AA
:104D3000042C0040A480054210B50120FEF734FC8D
:104D40000020FEF731FC10BD2A4908607047294950
:104D5000091F086070472749843108607047014681
:104D60000020254A10884FF67F4210400843224A0F
:104D700010807047014600201F4A10884FF680724D
:104D8000104008431C4A1080704708B5002200926A
:104D9000194A2C3A0092009A02440092009A11603B
:104DA00008BD08B501460020009013482C3800903B
:104DB0000098084400900098008808BD0D489C3079
:104DC0000068C0B270470C480830008840F001000D
:104DD00009490831088070470648A0300068C0B211
:104DE000704705480830008840F002000249083149
:104DF0000880704704860D422C6C00403149014305
:104E0000314A1160704770B5002100230F22C47829
:104E100004B32D4C246804F4E064C4F5E064210A72
:104E2000C1F10403CA40447804FA03F184781440C1
:104E300021430901254C0678A155047804F01F058B
:104E40000124AC4005786D11AD0005F1E025C5F8F1
:104E5000004109E0047804F01F050124AC401C4D1A
:104E60000678761145F8264070BD1A4A0A4002437A
:104E7000154B1B1F1A60704739B1134A121D126877
:104E80000243114B1B1D1A6006E00F4A121D1268E7
:104E900082430D4B1B1D1A607047042808D14FF048
:104EA000E021096941F004014FF0E022116107E0BF
:104EB0004FF0E021096921F004014FF0E022116177
:104EC000704700000000FA050CED00E000E400E08F
:104ED00080E100E080FFFF1F10B501210807FEF709
:104EE00056FB00214FF08050FEF751FB10BD2A49C0
:104EF0000862704728490861704701460020274A28
:104F0000106820F0E0000843106070472249A0318B
:104F10000860704710B502460020204B186820F04A
:104F20000300104318601E4B1B6843F004031C4C25
:104F30002360012901D130BF00E020BF184B1B685E
:104F400023F00403164C236010BD1448006840F0A1
:104F50000400124908600846006840F0020008603A
:104F60000F48006840F004000D49086000BF00BF12
:104F700030BF704701460020084A52680A400AB113
:104F8000012000E0002070470449096841EA8001DF
:104F9000024A11607047000000000E42007000409D
:104FA00010ED00E00146002209B90020704700BF63
:104FB000087800B902E0521C491CF9E700BF10460E
:104FC000F4E770472DE9F047064688461746FFF795
:104FD000F8FF06EB4601F74800EBC100056906EB58
:104FE0004601F44800EBC100D0F80CA04FF00009D6
:104FF000554524DD06EB4601EE4800EBC100806814
:10500000441BBC4201DA204600E03846044606EB69
:105010004602E84800EBC20040684119224640467B
:105020000AF09AFFA144A0443F1B254406EB460129
:10503000E04800EBC1008068A84200D10025AAEB3F
:105040000504BC4201DA204600E038460446002C44
:105050000EDD06EB4602D74800EBC200406841195E
:10506000224640460AF078FFA144A0443F1B254455
:10507000B9F1000F05D006EB4601CE4800EBC100A8
:1050800005614846BDE8F0872DE9F04704468946AA
:105090001646FFF796FF04EB4401C648303800EB94
:1050A000C100007D00F0030002282BD004EB440176
:1050B000C048303800EBC100D0F8108004EB440148
:1050C000BC48303800EBC100C068A8EB0000451EAA
:1050D000002D07DA04EB4401B648303800EBC1007C
:1050E00080680544AE420DDD04EB4401B148303820
:1050F00000EBC100007D00F0030010B90020BDE806
:10510000F0872E460EB90020F9E7002700BF04EB18
:105110004401A848303800EBC100D0F8108004EBFF
:105120004401A448303800EBC100C068A8EB00007F
:10513000451E002D07DA04EB44019E48303800EB91
:10514000C1008068054404EB44019A48303800EB04
:10515000C10004EB440281689648303800EBC2007D
:10516000C068081AA84201DD28460EE004EB44019D
:105170009048303800EBC10004EB440281688D4850
:10518000303800EBC200C068081A0546B54201DAA3
:10519000284600E03046054604EB44028549303994
:1051A00001EBC20104EB44034A688249303901EB48
:1051B000C301C96850182A4649460AF0CDFE2F445B
:1051C000A944761B04EB44017A48303800EBC10057
:1051D000C068411904EB44027648303800EBC20045
:1051E000C16004EB44017348303800EBC100C16872
:1051F00004EB44026F48303800EBC2008068814203
:1052000007D1002104EB44026A48303800EBC200A9
:10521000C160002E7FF47BAF384670E770B505465D
:105220000C462046FFF7BEFE06463246214628467B
:10523000FFF72AFF70BD38B5012269460020FFF74D
:10524000C1FE0446012C02D19DF8000038BD4FF08C
:10525000FF30FBE710B500BFFFF7EDFF0028FBDBD9
:1052600010BD10B5FFF7ADFE52484838846D406D53
:10527000A04201D0012010BD0020FCE72DE9F04143
:1052800004460D4616461F46DDF81880FFF799FEC6
:10529000484848380069A0422CD904B304EB4401C3
:1052A0004448303840F8315004EB440100EBC10071
:1052B000466004EB44013F48303800EBC100876092
:1052C000002104EB44023B48303800EBC20001618E
:1052D00004EB44023748303800EBC200C16004EBF5
:1052E00044013448303800EBC100C0F8148000207D
:1052F000BDE8F0814FF0FF30FAE72DE9F0410446B8
:105300000D4616461F46DDF81880FFF75AFE29485D
:1053100048384069A04227D9E4B104EB440125484C
:1053200040F8315004EB440100EBC100466004EB4F
:105330004401204800EBC1008760002104EB4402D7
:105340001C4800EBC200016104EB4402194800EB69
:10535000C200C16004EB4401164800EBC100C0F874
:1053600014800020BDE8F0814FF0FF30FAE710B55F
:10537000FFF727FE10BD38B50446FF208DF800006A
:105380000A2C05DA04F13000C0B28DF8010008E003
:10539000102C05DA04F13700C0B28DF8010000E0EE
:1053A00038BD05480470022269460020FFF76CFEF4
:1053B00000BFF5E770000020A0000020F8B504460B
:1053C0000D46FF208DF800000A2C05DA04F13000AC
:1053D000C0B28DF801000AE0102C05DA04F13700A4
:1053E000C0B28DF8010002E04FF0FF30F8BD02229C
:1053F00069460020FFF748FE29460020FFF70EFF10
:1054000006460A2C06DA0B4800783030C0B28DF818
:10541000010007E0102C05DA064800783730C0B2EA
:105420008DF80100022269460020FFF72DFE30466C
:10543000DCE70000A000002070B504460E46A56819
:10544000681C6168814206DB20684655681CA060C4
:10545000E068401CE060D4E9011088420DD1A268E8
:1054600021682069FFF710FEA168884203D04FF041
:10547000FF30E06001E00020A06070BD2DE9FE4F2C
:1054800081460F4614469846DDE90C5B01260197DC
:10549000B24605E00198B0FBF4F001900AF1010A70
:1054A0000198A042F6D2D04500D9C2460BF00100C7
:1054B000E0B9DDB10BF00200022805D1B8F1000F10
:1054C00002D13020009001E02020009009E0484601
:1054D0000099FFF7B1FFD9F80C00002801DABDE808
:1054E000FE8F1DB128466D1E5045F0D800E0664382
:1054F000B7FBF6F0A04201D3012000E000204146B6
:10550000A8F10108012901DD012100E00021084383
:105510000028ECD100BFB7FBF6F00290029800FB28
:105520001677E34A0298115C4846FFF785FFD9F8E1
:105530000C00002800DA03E0B6FBF4F6002EEAD1F6
:1055400000BF0BF0010078B175B108E0202148469A
:10555000FFF772FFD9F80C00002800DABFE71DB191
:1055600028466D1E5045F1D800BFB8E72DE9FC5F15
:1055700007460E4692469846DDE90C45002E01DAB4
:10558000704200E0304683464FF0010903E0BBFB68
:10559000FAFB09F10109D345F9D2C84500D9C14642
:1055A00034B1002E03DB05F00400042800D1641E92
:1055B00005F0020010B1B8F1000F12D005F00100A3
:1055C00078B974B108E020213846FFF735FFF86854
:1055D000002801DABDE8FC9F1CB12046641E484546
:1055E000F1D8002E08DA76422D213846FFF724FF45
:1055F000F86800280CDAEDE705F00400042807D16C
:105600002B213846FFF718FFF868002800DAE1E799
:1056100005F00200022814D105F0010088B9B8F1A4
:10562000000F0ED16CB107E030213846FFF704FFC0
:10563000F868002800DACDE71CB12046641E484512
:10564000F2D84346524631463846CDE90045FFF789
:1056500015FF00BFBEE72DE9F04F99B081460D461A
:10566000144603A814904020159000201690CDF801
:105670006090179000BF15F8016B06B9D4E0252E95
:1056800073D1002700BF2E78232E12D02B2E0CD0E2
:105690002D2E02D0302E10D103E047F001076D1CF3
:1056A0000CE047F002076D1C08E047F004076D1C92
:1056B00004E047F008076D1C00E001E000BFE2E7EE
:1056C0004FF0000800BF2E78302E01DB392E00DDB0
:1056D00007E06D1CA6F1300008EB880100EB4108E3
:1056E000F1E700BF002013902E782E2E12D16D1CF2
:1056F00000BF2E78302E01DB392E00DD09E06D1C55
:10570000A6F13000139901EB810100EB41001390E9
:10571000EFE700BF2E7800BF6C2E01D0682E02D1BB
:1057200015F8016B00E000E0F6E700BF702E5BD0DB
:1057300008DC252E68D0582E35D0632E09D0642E73
:1057400067D113E0732E3CD0752E1DD0782E60D11A
:1057500028E02168081D2060D1F800A00AF0FF0BA6
:10576000594614A8FFF768FE53E055E02168081D6C
:105770002060D1F800A0CDE900870A22514614A884
:10578000139BFFF7F3FE44E02168081D2060D1F869
:1057900000A0CDE900870A22514614A8139BFFF709
:1057A0006DFE36E000BF2168081D2060D1F800A022
:1057B000CDE900871022514614A8139BFFF75EFE27
:1057C00027E02168081D2060D1F800B000BF1BF859
:1057D000016B06B906E0314614A8FFF72DFE1798B5
:1057E0000028F4DA00BF14E02168081D2060D1F819
:1057F00000A0002008210B461022CDE900105146E0
:1058000014A8FFF73BFE04E0252114A8FFF714FEBF
:1058100000BF00BF6D1C03E0314614A8FFF70CFE6B
:1058200017980028BFF627AF00BF179800280ADD99
:10583000169820B103A94846169AFFF725FCDDE922
:10584000161008441790179819B0BDE8F08F0FB4E0
:1058500038B5044606A800906A4620460599FFF729
:10586000FAFE38BC5DF814FB70B504460D46002600
:1058700007E022780FA10020FFF7E9FF641C701CED
:1058800086B2AE42F5DB0DA10020FFF7E0FF70BD50
:1058900070B504460D46002607E0227805A10020D9
:1058A000FFF7D5FF641C701C86B2AE42F5DB70BDFD
:1058B0002C01010825303278200000000D0A00007C
:1058C00008B54FF400518803FFF7CFFA19208DF87F
:1058D000000004208DF8010000208DF80200012056
:1058E0008DF803006846FFF78EFA08BD3EB5044602
:1058F0000121C802FDF717FE9848FEF7C7F841F2EC
:105900008830ADF8040041F61F40ADF800000020DB
:10591000ADF80600ADF8020001208DF808006946D8
:105920008E48FEF787F901218C48FEF7A5FF01227A
:1059300011468A48FEF7F5FC21468848FEF7D6FC5A
:10594000FFF7BEFF3EBD08B54FF400518803FFF7D7
:105950008CFA4FF4E060FFF751FA1C208DF800003C
:1059600001208DF8010003208DF8020001208DF840
:1059700003006846FFF747FA08BD0EB50121084647
:10598000FDF7DEFD4FF08040FEF780F84FF6FF7028
:10599000ADF8040041F61F40ADF800000020ADF85E
:1059A0000600ADF8020069464FF08040FEF742F96C
:1059B00001218807FEF760FF012211469007FEF7DC
:1059C000B0FC01218807FEF791FC0EBD1CB501213A
:1059D0000846FDF7A8FD00F069FA0A210220FDF74C
:1059E0002FFB4FF48060009000208DF80400082009
:1059F0008DF8050001208DF806006846FCF74CFE86
:105A00001CBD38B504464FF400518803FFF72DFA4A
:105A100036208DF8000004208DF8010001208DF85B
:105A200002008DF803406846FFF7EDF938BD3EB53A
:105A3000044601211020FDF783FD4948FEF726F8B2
:105A400040F6B830ADF8040041F61F40ADF8000054
:105A50000020ADF80600ADF8020069464048FEF7A8
:105A6000E9F801213E48FEF707FF012211463C48B4
:105A7000FEF757FC21463A48FEF738FC2046FFF770
:105A8000C0FF3EBD10B5FCF717FC10BD10B5FFF709
:105A9000F9FF01210220FDF753FD3248FDF7F6FF23
:105AA0003048FEF757FC012247212E48FEF7C5FC7F
:105AB00000212C48FEF71AFD10BD08B5FFF7E6FFE0
:105AC00000F0D0F900F08AF9FFF73DFFFFF755FF2E
:105AD000482000F0BBF800F077FDAA20009000BF3E
:105AE0009DF8000008B9012000E0002018B100BFB7
:105AF00071B600BFFEE700BF08BD38B50446002000
:105B0000009000211748FEF785FE21461548FEF754
:105B100089FE01211348FEF7E9FB0DE09DF8000026
:105B2000401CC0B2009004EB44009DF80010884275
:105B300002D10020009005E008210A48FEF793FEFC
:105B40000028EBD000BF00210648FEF7CFFB08215C
:105B50000448FEF791FEFDF7B4FA38BD002C014071
:105B6000001000400004004010B50120FDF7CAFD00
:105B700040B32D4800F00FFC2C48007838B904F0F1
:105B8000EDFA20B129480078401C284908702848BF
:105B9000007808B909F06FFD2648007808B90AF0C6
:105BA000B3F92548007868B124480078401C23499F
:105BB000087008460078012804D1002008700120F0
:105BC0001F4908700220FDF79DFD10B10220FDF76E
:105BD000A9FD0120FDF7A6FDFDF766FD10BD70B51E
:105BE00016E01E2C0DD1002506E000F030F96420EF
:105BF00000F042F8681CC5B20A2DF6DB01201149FD
:105C00000870642000F038F8601CC4B2FDF759FA3F
:105C10004FF480710C48FDF790F90028E1D04FF463
:105C20008070FCF7B0FD70BDF80A0020AE060020C1
:105C3000DA060020DC060020DE060020A30000209B
:105C4000DD060020A1000020000C01404FF0E02103
:105C5000096921F007014FF0E0221161C21700EB42
:105C60005272D210324B1A60194609684FF47A7298
:105C70005143304A1160704701462E4A12684A4328
:105C80004FF0E0235A6100229A611A46126942F0ED
:105C900001021A611A46126942F001021A6100BF3C
:105CA0004FF0E022106900F001021AB100F48032D6
:105CB000002AF5D04FF0E022126922F007024FF0DF
:105CC000E0231A6100229A61704770B504460025EE
:105CD00006E04FF47A70FFF7CFFFFDF7F2F96D1C85
:105CE000A542F6D370BD0146114A12684A434FF0EF
:105CF000E0235A6100229A611A46126942F00102B9
:105D00001A6100BF4FF0E022106900F001021AB1E1
:105D100000F48032002AF5D04FF0E022126922F020
:105D200007024FF0E0231A6100229A6170470000D9
:105D3000A8000020A40000201CB501210820FDF7C8
:105D4000F2FB01211020FDF7EEFB4FF64070ADF89D
:105D5000040010208DF8070003208DF8060001A92B
:105D60003E48FDF757F840213C48FDF702F94FF453
:105D700080713A48FDF7FDF84FF400713748FDF7A0
:105D8000F6F84FF480613548FDF7F3F84FF4006101
:105D90003248FDF7EEF84FF480513048FDF7E9F84E
:105DA0004FF400512D48FDF7E4F84FF480412B48A3
:105DB000FDF7DFF84FF400412848FDF7DAF84FF41B
:105DC000C060ADF8000028208DF8030003208DF896
:105DD000020069462248FDF71DF81CBD70472048A7
:105DE000C06840F400601E49C86070471C48C06825
:105DF00020F400601A49C86070471948C06880F4F0
:105E000000601749C86070471548C06840F480605A
:105E10001349C86070471248C06820F48060104978
:105E2000C86070470E48C06880F480600C49C86044
:105E300070470B48C06840F480700949C8607047DB
:105E40000748C06820F480700549C860704704485E
:105E5000C06880F480700249C8607047000C01403F
:105E60000010014008B501211020FDF75CFB022065
:105E7000ADF8000010208DF8030002208DF802001C
:105E800069460948FCF7C6FF08BD10B5012202218A
:105E90000548FDF770F810BD10B500220221024838
:105EA000FDF769F810BD0000001001401CB54FF46B
:105EB00000518803FEF7D9FF4FF48060FEF79EFF84
:105EC00003208DF804008DF8050001208DF80600F0
:105ED0008DF8070001A8FEF796FF4FF4C060FEF7AB
:105EE0008DFF28208DF8000001208DF801008DF82D
:105EF00002008DF803006846FEF785FF1CBD000018
:105F000030B585B005460C4601214804FDF718FB65
:105F100001210520FDF707FB0420ADF80000182043
:105F20008DF8030001208DF8020069467A48FCF7DD
:105F300071FF0820ADF8000004208DF803006946C9
:105F40007548FCF767FF7548FEF7AEFC0195002029
:105F5000ADF80800ADF80A00ADF80C00ADF810007F
:105F60000C20ADF80E0001A96C48FEF7E0FC2246BB
:105F700040F225516948FEF772FD00BF00BF21467F
:105F80006648FEF760FD05B030BD38B504464FF4F5
:105F900000518803FEF769FF26208DF800000120DC
:105FA0008DF8010000208DF802008DF8034068464E
:105FB000FEF729FF38BD10B504460BE000BF574877
:105FC000008800F080000028F9D014F8011B534825
:105FD000FEF7A6FD20780028F0D110BD38B50446A4
:105FE000E11704EB11710911A4EB01110A290BDA75
:105FF0002046E11704EB11710911A4EB01113031B6
:10600000C9B28DF801100AE02046E11704EB1171C6
:106010000911A4EB01115731C9B28DF80110E11734
:1060200004EB11710A22B2EB211F09DD2046E117B2
:1060300004EB117109113031C9B28DF8001008E07C
:106040002046E11704EB117109115731C9B28DF8DF
:10605000001020208DF8020000208DF80300684613
:10606000FFF7A9FF38BD70B504460D46002605E0D0
:106070002078FFF7B3FF641C701C86B2AE42F7DBDA
:1060800070BD10B5044600BF2448008800F08000B1
:106090000028F9D021462148FEF742FD10BD7CB50D
:1060A00004460D461EA10020FFF7B8F829462046F9
:1060B000FFF7DAFB002605E02078FFF7E2FF641C1B
:1060C000701C86B2AE42F7DB4FF08040FEF7C5FB96
:1060D0000190BDF8040000128DF80000BDF8040026
:1060E000C0B28DF8010015A10020FFF797F802213A
:1060F0006846FFF7B9FB7CBD70B504460D46E1B2BA
:106100000648FEF70DFD00BF40210448FEF776FD6E
:106110000028F9D0204670BD00080140004400402E
:106120001B5B313B33356D5553415254322053453F
:106130004E443A1B5B306D0A000000001B5B313B94
:1061400033356D75736172743220534544204F5658
:1061500045521B5B306D0A0010B50121C802FDF7E6
:10616000EFF90020FEF7AFFDFF20FEF7B5FD402060
:10617000FEF7CDFD10BD70B5044600BF45F2555089
:10618000FCF796FF0620FCF796FF1A2C00DB1A247A
:106190009D2004FB00F5A8B2FCF790FFFCF791FFEF
:1061A000FCF794FF70BD00002DE9F04707460C4650
:1061B0001546681C00EBD071C1F34F084FF0000981
:1061C000284605EBD0714910A5EB410111B14FF004
:1061D000010901E04FF00009FBF7C4FF8246FCF71C
:1061E000FAFA3520FCF792FD3846FCF739FBFCF74C
:1061F00068FF17E0B8F1000F07D1B9F1010F04D122
:1062000014F8016B46F47F4605E014F8016B14F8AE
:10621000011B46EA012631463846FCF724FCFCF710
:1062200050FFBF1C5FEA0800A8F101011FFA81F8C6
:10623000E0D1FCF7DCFA5046FBF798FFBDE8F087A9
:1062400010B503E010F8013B01F8013B1300A2F187
:106250000104A2B2F6D110BD10B50446FCF7BBFA9A
:106260003520FCF753FD2046FCF7FAFAFCF7BFFA9D
:1062700010BD7CB51A480088ADF800001848808829
:1062800080B2ADF8020016484068000CADF804007A
:10629000FBF768FF0546FCF79EFA3420FCF736FD55
:1062A0001048FCF7DDFA002408E03DF814100D4A10
:1062B00002EB4400FCF7D7FB601CC4B2032CF4DBF8
:1062C000FCF795FA2846FBF751FF7CBD054800888E
:1062D000034908800348801C00684860704700003C
:1062E000AC000020001C0008F0B503460C46154623
:1062F000642093FBF0F0C6B2642093FBF0F700FB40
:106300001730C1B2132E02DD01F16400C1B208469C
:10631000CF1701EB977701EBA707BAB2072092FBE3
:10632000F0F700FB172082B25719601EDFF84CC34C
:106330001CF80000384482B2CF1701EB9777BF10EA
:10634000A1EB87071FB9032C01DA501E82B2072088
:1063500092FBF0F700FB1720C0B2F0BD0146CA1750
:1063600001EB92729210A1EB820292B9642091FB30
:10637000F0F200FB121050B94FF4C87091FBF0F22C
:1063800000FB121008B9012070470020FCE7012033
:10639000FAE70020F8E72DE9F04105460027002440
:1063A0000026FDF745F90746B548B7FBF0F4B548B8
:1063B0000088A04239D0B3490C8040F2B27610E098
:1063C0003046FFF7CBFF40B1B4F5B77F02D3A4F559
:1063D000B77404E0701C86B206E0A4F26D14701C61
:1063E00086B2B4F5B67FEBD800BF2E80002615E04C
:1063F0002888FFF7B3FF30B1012E04D11D2C01D343
:106400001D3C09E00CE0A048805DA04203D89E48F6
:10641000805D241A00E003E0701C86B21C2CE7D2D9
:1064200000BF701CA870601CE8709548B7FBF0F1C5
:1064300000FB11744FF46160B4FBF0F028714FF46D
:106440006160B4FBF0F100FB11403C21B0FBF1F0C6
:1064500068714FF46160B4FBF0F100FB11403C2126
:10646000B0FBF1F201FB1200A871EA78A978288844
:10647000FFF73AFFA8720120BDE8F08137B500248C
:10648000BDF8000040F2B271884205DBBDF80000A3
:1064900040F63301884201DD01203EBD40F2B27575
:1064A0000AE02846FFF75AFF10B17848044401E09B
:1064B00077480444681C85B2BDF80000A842F0DCAF
:1064C0009DF80200401EC0B28DF80200002511E0C8
:1064D0006D48405D40F2A321484304EBC014BDF871
:1064E0000000FFF73BFF18B1012D01D164480444BF
:1064F000681C85B29DF80200A842E9DC9DF8030003
:10650000401E40F2A321484304EBC0149DF8040050
:10651000C0EB4011C1EB002004EB00149DF8050016
:10652000C0EB001004EB80049DF806000444FDF766
:10653000BBF82046FDF785F8FDF7B6F80020ACE77C
:106540000146002000BF06E001F0010202B104E0B4
:106550004910421CD0B20628F6DB00BF7047FEB5DA
:1065600004460D46072D01D00020FEBD00BFFBF7FD
:10657000F9FD064600BF207800F5FA60454908801D
:1065800060788870A078C870E078087120794871C8
:1065900060798871A079FFF7D3FF3E498872084679
:1065A000016800914168019180680246029000985C
:1065B000FFF764FF0120FDF7B5F8FDF775F83046E9
:1065C000FBF7D4FD0120D0E71CB50020019000901E
:1065D00001214FF0C050FCF7B3FF0120FEF787FC0C
:1065E0000420FEF7DEFB45F25551884222D0FEF72B
:1065F000A3FB4FF44070FCF7ADFE0120FCF7B0FEAA
:10660000FDF75BF8FDF750F801210846FCF7F0FFB5
:10661000FDF74AF84FF22340FDF720F8FDF744F864
:1066200007211D48FFF79BFF45F255510420FEF757
:10663000ACFB0EE07B20FCF7A5FD10B97A20FCF73F
:10664000A1FDFDF73AF801210846FCF7D1FFFDF75F
:106650002BF81048FFF79FFEFCF7AFFF00201CBD92
:1066600010B5FCF7E5FF10BD0146062901DD08461F
:10667000704701208840C0B2FAE700003C010108E1
:1066800080510100BC000020480101080085E201A2
:106690008033E101F80A0020B400002008B535A0DD
:1066A0000068009034A10020FEF7B8FDFBF762FD02
:1066B00008BD08B537A00068009037A10020FEF79C
:1066C000ADFDFBF757FD3D48006800F0010000B14B
:1066D00000BE00BFFEE708B539A00068009039A1F0
:1066E0000020FEF79BFDFBF745FD00BFFEE708B568
:1066F0003DA0006800903DA10020FEF78FFDFBF754
:1067000039FD00BFFEE708B540A00068009040A139
:106710000020FEF783FDFBF72DFD00BFFEE710B55F
:1067200044A10020FEF77AFDFBF724FD10BD10B553
:1067300047A10020FEF772FDFBF71CFD10BD10B550
:106740004BA10020FEF76AFDFBF714FD10BD10B54C
:106750004FA10020FEF762FDFBF70CFD10BD10B548
:1067600001218807FEF78BF818B101218807FEF791
:1067700097F810BD000405011B5B313B33356D4EAE
:106780004D495F48616E646C65722E2E2E1B5B3026
:106790006D0A0000000405021B5B313B33356D4878
:1067A0006172644661756C745F48616E646C657299
:1067B0002E2E2E1B5B306D0A00000000F0ED00E075
:1067C000000405031B5B313B33356D4D656D4D6139
:1067D0006E6167655F48616E646C65722E2E2E1B5C
:1067E0005B306D0A00000000000405041B5B313BB8
:1067F00033356D4275734661756C745F48616E64C4
:106800006C65722E2E2E1B5B306D0A000004050590
:106810001B5B313B33356D55736167654661756C44
:10682000745F48616E646C65722E2E2E1B5B306D3A
:106830000A0000001B5B313B33356D5356435F4804
:10684000616E646C65722E2E2E1B5B306D0A00002B
:106850001B5B313B33356D44656275674D6F6E5F11
:1068600048616E646C65722E2E2E1B5B306D0A00C3
:106870001B5B313B33356D50656E6453565F486129
:106880006E646C65722E2E2E1B5B306D0A0000004C
:106890001B5B313B33356D5379735469636B5F48D0
:1068A000616E646C65722E2E2E1B5B306D0A0000CB
:1068B00010B500BFFBF756FC044600BFFB4800784C
:1068C000012804D001F017FA0120F8490870204689
:1068D000FBF74CFC10BD10B5012001F075F900F07C
:1068E0000704204610BD10B5F1A10020FEF796FC6C
:1068F00001F0C2F8F448007801F0D2FA10BD10B5EA
:1069000000BFFBF72FFC044600BF4FF48061EF4847
:10691000FCF72FFB0020EE490870EE48007820F0CD
:106920002000EC4908700520E0490870FFF7DBFF04
:106930002046FBF71BFC10BDE748007800F00F0075
:10694000012806D002280ED0042816D008281ED10F
:106950001CE00120E14908700420E1490870022090
:10696000E04908701CE00620DC4908700520DC497D
:1069700008700220DB49087012E00920D74908702E
:106980000120D7490870D749087009E008E00120C4
:10699000D2490870D24908700220D249087000BF5D
:1069A00000BF7047CB49097821F00101491CC94A51
:1069B00011701146097821F00201891C11701146ED
:1069C000097821F0040111701146097821F00801BD
:1069D000083111701146097881F0FF00BE4909782D
:1069E00041400140C04A1170BB490870097801F06C
:1069F0001F01B94A1170704700B587B000BF01216F
:106A00000420FCF790FD1020ADF8180001208DF84F
:106A10001A0010208DF81B0006A9B448FCF7FAF9FB
:106A200000BF00BFB1480C30006840F01000AF4913
:106A30000C31086000BF00BF01210803FCF773FDA3
:106A400001210420FCF76FFDE020ADF804000320D5
:106A50008DF8060018208DF8070001A9A348FCF75F
:106A6000D9F90021A248FCF753FF0020ADF8080037
:106A70004FF48270ADF80A000020ADF80C00ADF8BC
:106A80000E00ADF810004FF40070ADF812001820A1
:106A9000ADF814000020ADF816000720ADF818007E
:106AA00002A99348FCF76EFE01219148FCF730FFE4
:106AB00000BF07B000BD70B540218448FCF757FA0D
:106AC00042218C4809F06FFA00BFFBF74BFB0646EA
:106AD00000BF89A10020FEF7A1FBFFF78DFFFFF7A4
:106AE0002BF9FFF75FFFFFF727FFFEF76FFFFFF7B9
:106AF000DFFE002001F01BF9422001F065F8FFF7EE
:106B0000FEFEFFF7E8FE694908701B2001F05CF803
:106B1000C0F1A400C5B2002408E07D4801782846F1
:106B200061F35F007A490870601CC4B2102CF4DB7A
:106B30007748007840F0800075490870FFF7B8FE8C
:106B400064207449088008460088401100EB400129
:106B5000C1EBC010FA2101EBC0006F490880402151
:106B6000644809F020FA63480021A0F84010FFF7BC
:106B70009DF900BF61B600BF3046FBF7F7FA70BD64
:106B800070B504462046E11704EB1171C1F30F16EE
:106B900084B100BF00BFFBF7E5FA054600BF102037
:106BA000FEF7ABFF2846FBF7E1FA3000A6F1010142
:106BB0008EB2EFD170BD564800786D214843433006
:106BC0005349087008460078704770B5FFF7F3FF27
:106BD00000F00F00451C002405E04F480088FFF737
:106BE000CFFF601CC4B2AC42F7DB70BD70B5044689
:106BF0000D464A48006820F480604849086000F06B
:106C000042FF314802782946204601F0E5F929463D
:106C1000204601F01BFA4FF480612C48FCF7A7F9DD
:106C200000BF4FF480613E48FCF787F90028F8D098
:106C30004FF480613A48FCF780F968B101F071F8CF
:106C400001F059F84FF480612048FCF792F935487B
:106C50000078401C334908703048006840F4806078
:106C60002E49086070BD1CB501AC1B2000F0ACFFC4
:106C70002D49087008460078C0F1A400C0B2019008
:106C800000200346024601460090FEF7F7FA27A1CE
:106C90000020FEF7C3FA01212046FEF7E5FD9DF82E
:106CA00004005A284EDB01204DE00000ED000020DA
:106CB0001B5B313B33356D525820504152205345B8
:106CC000541B5B306D0A0000EF000020000C0140F7
:106CD000D5000020E4000020CC00002003010020AB
:106CE0000201002004010020CB0000200008014028
:106CF00000300140590B00201B5B313B33356D4D9B
:106D000052464920494E49542E0A1B5B306D0A00F9
:106D1000EE000020F4000020F600002000040140F6
:106D200000100140F0000020E30000201B5B313B1D
:106D300033316D525353492056414C55451B5B30FE
:106D40006D0A000000209DF80410A42901DC012137
:106D500000E00021084008B100201CBD0120FCE734
:106D600010B54FF47A7400BFFFF77DFF00B907E05C
:106D70004020FEF7B8FFA4F1400004B2002CF3DC81
:106D800000BF002C01DD012010BD0020FCE72DE933
:106D9000FE4306460C464FF00008C146F7A00068C7
:106DA0000190FFF785FDF648007820F020002030A4
:106DB000F34908703078401CC7B24FF48061F14845
:106DC000FCF7D7F80020F04908704FF08040FDF73D
:106DD00044FD0290BDF808000012EC490870BDF8AF
:106DE0000800487000200346024601460090FEF766
:106DF00045FAE7A10020FEF711FA39463046FEF7C2
:106E000033FD0221E148FEF72FFD24B93946304613
:106E1000FFF7ECFE3AE0012C38D1042500BFD8483A
:106E2000007820F02000D649087000F025FEDD48EB
:106E3000007801F0BEF9FFF793FF8146B9F1000F2A
:106E40000BD0CF48007820F020002030CC490870CB
:106E500039463046FFF7CAFE17E0D3A10020FEF7FF
:106E6000DDF9FFF738FDD8490870FFF721FD25B19E
:106E7000FFF7ABFE681EC5B2D1E7D4480078401CCE
:106E8000D24908704FF0010800BF00BFFFF737FD7F
:106E90004046BDE8FE8310B504464222CC49204658
:106EA00009F05AF810BD30B50546CA48007808B94F
:106EB000002030BD0023002400210EE06A5CC6489B
:106EC000405C904201D1581CC3B2C448405C90421F
:106ED00001D1601CC4B2481CC1B20429EEDB042CF1
:106EE00001D0042B01D10020E3E70120E1E710B538
:106EF000BB480078401CBA490870B548401CFFF7F1
:106F0000D2FFA8B9B7A10020FEF788F91A2000F037
:106F10005BFEC0F1A400AE4981F84000084690F83D
:106F2000410000F07F01AA4880F8411002F088FD7E
:106F300010BD704710B5B148006820F48060AF49BB
:106F40000860FFF7B5FC4FF48060FBF71CFC10BD38
:106F500010B500BFFBF706F9044600BF9A48007859
:106F6000082802D00820984908702046FBF7FEF850
:106F700010BD95480078082800D0704700BFFCE796
:106F800010B59E48006800F0020090B19C4800785F
:106F900001280ED192480078401C9149087000BF2A
:106FA0000020974908700220FBF7EDFB00BFFFF7B8
:106FB000C0FF10BD70B5044600259248848108E0EA
:106FC000681C85B20A2D04DDFFF775FDFFF797FCFD
:106FD00005E08C48008900F001000028F0D000BFD7
:106FE00088488089C0B270BD10B5FF20FFF7E2FF6E
:106FF00010BD70B505460E46002404E0FFF7F4FF0F
:107000003055601CC4B2AC42F8DB70BD10B504460C
:107010002046FFF7CFFF10BD2DE9F04105460E4693
:107020000024002721E000BF7748006820F010000E
:107030007549086000BF4420FFF7E8FFFFF7D4FF61
:107040000446FF2C11D000BF6F48006840F01000CC
:107050006D49086000BF781C80B2074640F6C41135
:10706000884202DD2046BDE8F081FF2CDBD13146AD
:107070002846FFF7BEFF00BF6348006840F01000DD
:107080006149086000BF2046EDE770B505460E4631
:10709000002404E0305DFFF7B9FF601CC4B2AC42CD
:1070A000F8DB70BD70B504460D4600BF5648006859
:1070B00020F010005449086000BF29462046FFF721
:1070C000E4FF00BF5048006840F010004E490860DF
:1070D00000BF70BD2DE9F04106460F4614461D461F
:1070E0004FF0000839463046FFF7DCFF29462046BE
:1070F000FFF792FF80464046BDE8F0811CB543A0F3
:10710000006801906B46022201A91046FFF7E2FFDA
:107110009DF80100C0F3C0001CBD10B54FF47A7497
:1071200000BFFFF7EBFF00B907E04020FFF728FDA5
:10713000A4F1400004B2002CF3DC00BF002C01DD00
:10714000012010BD0020FCE708B51B2000F03CFD2D
:10715000C0F1A400C0B200909DF8000008BD10B5B9
:10716000FFF7CDFBFFF7F0FF044660B210BD01460C
:107170004022C2EB6102463A50B27047FFFFFFFF68
:10718000E4000020000C0140D5000020E5000020B4
:107190001B5B313B33316D545820444154411B5BE0
:1071A000306D0A00EF0000201B5B313B33356D4D25
:1071B00052464920434341206661696C65642E0A4A
:1071C0001B5B306D0A000000ED000020E200002093
:1071D000590B0020FC000020FD0000205401010894
:1071E000F10000201B5B313B33356D4D4946492092
:1071F0005278204F4B2E1B5B306D0A00000401407B
:10720000F8000020003001400C080140220000007E
:1072100070B504462046E11704EB1171C1F30F1657
:10722000ACB100BF00BFFAF79DFF054600BF1020BC
:10723000FEF763FC2846FAF799FFF748007800B19B
:1072400004E03000A6F101018EB2EBD100BF70BDA9
:1072500010B5044605E040F25230FFF791FC601E85
:1072600084B2002CF7D110BD70B5EC48048800BF83
:10727000FAF778FF054600BF0120E9490870284663
:10728000FAF774FF09E040F25230FFF7C1FFE2481D
:10729000007800B103E0601E84B2002CF3D100BF7F
:1072A00000BFFAF75FFF054600BF0020DA4908700B
:1072B000DB4908702846FAF759FF70BDD8480078B6
:1072C00010B10120D44908707047D6480078704743
:1072D00030B502460B464FF6FF70002117E0555CB3
:1072E00080EA052008240EE000F400452DB148F2A4
:1072F000050585EA4005A8B203E04FF6FF7505EAEB
:107300004000651EECB2002CEED14D1CE9B2994252
:10731000E5DB30BD70B504462078801C20702078F5
:10732000401CC5B2A81EC1B22046FFF7D1FF0646D9
:10733000310AA81E2154681E2654284670BD70B517
:1073400004462078401CC5B229462046FFF7C0FFFE
:1073500006462078801E2070F0B270BD7CB50546D0
:107360000C4631208DF800008DF8015030208DF84A
:10737000020000208DF803008DF804408DF8050010
:1073800000231A4669460620FFF7A4FE7CBD70B5AF
:1073900006460C46154600BFA348006820F01000C2
:1073A000A149086000BF3046FFF730FE294620465D
:1073B000FFF76BFE00BF9C48006840F010009A4940
:1073C000086000BF70BD70B504460D4622462946D0
:1073D0006620FFF7DCFF70BD08B594A00068009040
:1073E00000231A4669460220FFF774FE08BD08B55F
:1073F00020208DF8000000208DF801008DF802009B
:107400008DF8030000231A4669460420FFF762FE48
:1074100008BD08B586A00068009000231A4669469A
:107420000220FFF757FE08BD2DE9F04106460F4642
:10743000144600BFFAF796FE054600BFFFF7E9FFC6
:10744000FFF7D5FFFFF7C8FF39463046FFF7BBFF10
:107450000120FEF711FC39462046FFF77FFF284642
:10746000FAF784FEBDE8F08110B5044600BF0221A2
:107470007048FCF7D1FA0028F9D021466D48FCF796
:1074800078FA00BF01216B48FCF7C6FA0028F9D052
:107490006848FCF770FAC0B210BD70B505460E46DC
:1074A000144600BF6048006820F010005E49086084
:1074B00000BF2846FFF7AAFDFF20FFF7D5FF207089
:1074C00000BF5948006840F010005749086000BFED
:1074D00070BD08B56A4601215120FFF7DEFF9DF817
:1074E000000008BD10B500240FE00120FFF7B0FE3A
:1074F000FFF7EFFF00F0200028B14F480078401C54
:107500004D49087003E0601CC4B2142CEDDB00BFD1
:1075100010BD38B504460120009023460822694674
:10752000FFF7D8FD38BD7CB500240FE06846FFF7B3
:10753000F0FF9DF802009DF8011040EA012544F299
:107540003840854200D17CBD601CC4B2032CEDDB09
:1075500000BF71B600BFFEE7374800787047374874
:107560000078704710B5044635480470FFF7C7F936
:1075700010BD3348007870477FB504461AE014F810
:10758000015B102D02D9042004B070BD002605E077
:1075900020780DF80600641C701CC6B2AE42F7DB02
:1075A00000231A4669462846FFF794FDFF2801D0BC
:1075B0000220E9E720780028E1D100BFE4E710B518
:1075C000F0B04FF4B6721F4915A808F0C5FC1EA113
:1075D00003C9CDE9130114221DA10EA808F0BCFCBB
:1075E000342220A101A808F0B7FC15A8FFF7C4FFBA
:1075F000044600BF1CB100BF71B600BFFEE700BF6C
:1076000013A8FFF7B9FF044600BF1CB100BF71B655
:1076100000BFFEE740E00000F2000020F400002080
:10762000F3000020ED0000200C08014015010000CF
:107630003403000000300140F0000020F100002081
:10764000EF00002068010108051112010682000008
:107650000F11120C200000010400003F0000000088
:107660000000000005111001043D05111101000585
:10767000051112010F050511120113010511200159
:107680000180051120014284051112012305051115
:10769000120127010000000000BF0EA8FFF76CFFD9
:1076A000044600BF1CB100BF71B600BFFEE700BFBB
:1076B00001A8FFF761FF044600BF1CB100BF71B60F
:1076C00000BFFEE700BF70B010BD10B50021084636
:1076D000FFF7A2FC10BD38B501210820FBF723FFFE
:1076E0000120ADF800008DF8020010208DF8030095
:1076F0006946C048FBF78EFB0121BE48FBF737FC0B
:10770000002401E0601C84B2B4F5A57FFADB0121FE
:10771000B848FBF72EFC002401E0601C84B2B4F5ED
:10772000704FFADB0620FEF7A7FA38BD08B5B2A005
:107730000068009000231A4669460220FFF7CAFC41
:1077400008BD1CB5ADA0006801906B46022201A9DE
:107750000120FFF7BFFC9DF800001CBD1CB5A7A0D1
:10776000006801906B46022201A90120FFF7B2FCDC
:107770009DF801001CBD70B504460D462246294601
:107780007720FFF78AFE70BD1CB5044632208DF8C5
:1077900000008DF8014000208DF802008DF80300F4
:1077A0008DF8040008208DF8050003208DF80600F0
:1077B00008208DF8070000231A466946FFF78AFC67
:1077C0001CBD08B521208DF8000000208DF80100B7
:1077D00000231A4669460220FFF77CFC08BD2DE90C
:1077E000FE4306460D461746984611208DF80000C8
:1077F0008DF801608DF802508DF80370042406E0C6
:10780000201F18F800000DF80400601CC4B2280006
:10781000A5F10101CDB2F3D169462046FFF742FC44
:10782000BDE8FE8338B5044608208DF800008DF8C9
:10783000014000208DF802003D208DF803006B46CA
:10784000002204212220FFF7CAFF38BD08B56A468E
:1078500001215020FFF721FE9DF8000008BDF8B57A
:1078600005460C4616461F4612208DF800008DF87E
:1078700001508DF802408DF803603B462246694670
:107880000420FFF727FCF8BD10B5044600BF042C08
:1078900003DB00BF71B600BFFEE700BFFFF708F8CB
:1078A0002046FFF75FFE56480078052801D1FFF714
:1078B00026F810BD10B5044600BF062C03DB00BF40
:1078C00071B600BFFEE700BFFEF7F2FF4D49085D4D
:1078D000FFF7A8FF4A480078052801D1FFF70FF805
:1078E00010BD0146002004E00A5C474B1A54421CBC
:1078F000D0B20428F8DB002070470120434908700B
:107900007047002041490870704710B50220FAF70F
:107910003AFF10BD1CB54FF48060FAF723FF002832
:1079200067D03BA10020FDF779FC4FF08040FCF7C9
:1079300094FF0090BDF8000000128DF80400BDF81F
:107940000000C0B28DF80500022101A8FDF78CFFF0
:1079500000F0EAFA04464FF08040FCF77EFF00900A
:10796000BDF8000000128DF80400BDF80000C0B2A0
:107970008DF8050030A10020FDF750FC022101A880
:10798000FDF772FF00203349087033480078012862
:1079900000D100E00020012C01D1012100E00021F4
:1079A000084050B14FF480611248FBF7E0FA002024
:1079B00029490870FFF79BFA17E02748007801284B
:1079C00001D0012000E00020012C01D1012100E0C4
:1079D0000021084048B14FF480610648FBF7C9FA1E
:1079E00001201D490870FFF782FA4FF48060FAF712
:1079F000CAFE1CBD000C014015020000150000006D
:107A0000ED00002060010108FD000020FC000020C6
:107A10001B5B313B33356D45584954313020496E3D
:107A2000746572727570742048617070656E6564FB
:107A30001B5B306D0A0000001B5B313B33356D5220
:107A400058205041434B455220444F4E451B5B301C
:107A50006D0A0000D500002001010020002106E091
:107A6000002201E0531CDAB2782AFBDB491C814278
:107A7000F6D370477047704710B54FF48071FD48DA
:107A8000FBF775FA10BD10B54FF48071F948FBF79C
:107A900070FA10BD70B504464FF40071F548FBF75D
:107AA00068FA4FF40061F348FBF763FA08251EE01B
:107AB0004FF40061EF48FBF75CFA04F0800028B156
:107AC0004FF48051EB48FBF752FA04E04FF4805139
:107AD000E848FBF74EFA00BF00BF4FF40061E548ED
